:100000000C942A000C9434000C9434000C943400AA
:100010000C9434000C9434000C9434000C94340090
:100020000C9434000C9434000C9434000C94340080
:100030000C9434000C9434000C9434000C94340070
:100040000C9434000C9434000C9434000C94340060
:100050000C94340011241FBECFE5D8E0DEBFCDBF25
:100060000E94FA000C9419010C940000DF93CF93C6
:1000700000D000D0CDB7DEB789836A838981282F6D
:1000800030E03C832B838B819C8181309105D1F0C2
:100090002B813C81223031052CF48B819C8100978F
:1000A00061F01EC02B813C812230310581F08B81B3
:1000B0009C818330910581F013C0E9E3F0E08A81EF
:1000C00081830EC0E6E3F0E08A81818309C0E3E327
:1000D000F0E08A81818304C0E0E3F0E08A818183DB
:1000E0000F900F900F900F90CF91DF910895DF93B5
:1000F000CF9300D000D0CDB7DEB789836A838981E2
:10010000282F30E03C832B838B819C8181309105AB
:10011000D1F02B813C81223031052CF48B819C81E4
:10012000009761F01EC02B813C812230310581F0A7
:100130008B819C818330910581F013C0E9E3F0E06D
:100140008A8182830EC0E6E3F0E08A81828309C05F
:10015000E3E3F0E08A81828304C0E0E3F0E08A8197
:1001600082830F900F900F900F90CF91DF910895A1
:10017000DF93CF9300D000D0CDB7DEB78A8319824A
:100180008A81282F30E03C832B838B819C818130B6
:100190009105D1F02B813C81223031052CF48B81EB
:1001A0009C81009761F01EC02B813C81223031057B
:1001B00081F08B819C818330910581F013C0E9E34C
:1001C000F0E0808189830EC0E6E3F0E080818983DE
:1001D00009C0E3E3F0E08081898304C0E0E3F0E05C
:1001E0008081898389810F900F900F900F90CF911C
:1001F000DF910895DF93CF93CDB7DEB780E06FEF47
:100200000E94360081E060E00E94360081E06FEFDE
:100210000E94770081E00E94B8008F3729F480E0C7
:1002200060E00E947700F6CF80E06FEF0E947700D9
:06023000F1CFF894FFCFAE
:00000001FF
