:100000000C942A000C94D5060C9408070C943B071A
:100010000C943C000C943C000C943C000C943C0070
:100020000C943C000C943C000C943C000C943C0060
:100030000C943C000C943C000C943C000C943C0050
:100040000C943C000C943C000C943C000C943C0040
:100050000C943C0011241FBECFE5D8E0DEBFCDBF1D
:1000600010E0A0E6B0E001C01D92A836B107E1F7AC
:100070000E948A070C94FD070C940000DF93CF9335
:1000800000D000D00F92CDB7DEB78A836B83198280
:100090008A81282F30E03D832C838C819D818230A2
:1000A0009105E9F02C813D812330310534F48C81B8
:1000B0009D818130910561F027C02C813D812330E5
:1000C0003105A1F08C819D8184309105B1F01CC077
:1000D000E9E3F0E08B81818381E0898316C0E6E368
:1000E000F0E08B81818381E089830FC0E3E3F0E05E
:1000F0008B81818381E0898308C0E0E3F0E08B811C
:10010000818381E0898301C0198289810F900F90DA
:100110000F900F900F90CF91DF910895DF93CF93C1
:1001200000D000D00F92CDB7DEB78A836B831982DF
:100130008A81282F30E03D832C838C819D81823001
:100140009105E9F02C813D812330310534F48C8117
:100150009D818130910561F027C02C813D81233044
:100160003105A1F08C819D8184309105B1F01CC0D6
:10017000E9E3F0E08B81828381E0898316C0E6E3C6
:10018000F0E08B81828381E089830FC0E3E3F0E0BC
:100190008B81828381E0898308C0E0E3F0E08B817A
:1001A000828381E0898301C0198289810F900F9039
:1001B0000F900F900F90CF91DF910895DF93CF9321
:1001C00000D000D000D0CDB7DEB78A837C836B83AC
:1001D00019828A81282F30E03E832D838D819E8174
:1001E00082309105F9F02D813E812330310534F4C0
:1001F0008D819E818130910561F02FC02D813E81DE
:1002000023303105C1F08D819E8184309105E1F06C
:1002100024C0E9E3F0E08081EB81FC81808381E010
:1002200089831CC0E6E3F0E08081EB81FC81808360
:1002300081E0898313C0E3E3F0E08081EB81FC81FE
:10024000808381E089830AC0E0E3F0E08081EB8174
:10025000FC81808381E0898301C01982898126968F
:100260000FB6F894DEBF0FBECDBFCF91DF910895DA
:10027000DF93CF93CDB7DEB72A970FB6F894DEBFE2
:100280000FBECDBF8A836B834C8319828B818830EC
:1002900008F0EDC18C81882309F087C08A81282F5E
:1002A00030E03A87298789859A858230910581F1E6
:1002B00029853A852330310534F489859A85813042
:1002C000910569F070C029853A8523303105C9F15F
:1002D00089859A858430910509F44CC064C0A9E3EE
:1002E000B0E0E9E3F0E08181482F8B81282F30E0F6
:1002F00081E090E0022E02C0880F991F0A94E2F775
:100300008095842311968C93119781E08983B0C1E5
:10031000A6E3B0E0E6E3F0E08181482F8B81282F4F
:1003200030E081E090E0022E02C0880F991F0A940D
:10033000E2F78095842311968C93119781E089834D
:1003400097C1A3E3B0E0E3E3F0E08181482F8B8124
:10035000282F30E081E090E0022E02C0880F991F24
:100360000A94E2F78095842311968C93119781E08B
:1003700089837EC1A0E3B0E0E0E3F0E08181482F13
:100380008B81282F30E081E090E0022E02C0880FA0
:10039000991F0A94E2F78095842311968C93119704
:1003A00081E0898365C1198263C18C81813009F044
:1003B00083C08A81282F30E038872F838F819885EA
:1003C0008230910579F12F8138852330310534F45D
:1003D0008F8198858130910569F06CC02F813885B7
:1003E00023303105B9F18F8198858430910509F466
:1003F00049C060C0A9E3B0E0E9E3F0E08181482FA3
:100400008B81282F30E081E090E0022E02C0880F1F
:10041000991F0A94E2F7842B11968C93119781E02F
:10042000898326C1A6E3B0E0E6E3F0E08181482FAE
:100430008B81282F30E081E090E0022E02C0880FEF
:10044000991F0A94E2F7842B11968C93119781E0FF
:1004500089830EC1A3E3B0E0E3E3F0E08181482F9C
:100460008B81282F30E081E090E0022E02C0880FBF
:10047000991F0A94E2F7842B11968C93119781E0CF
:100480008983F6C0A0E3B0E0E0E3F0E08181482F8B
:100490008B81282F30E081E090E0022E02C0880F8F
:1004A000991F0A94E2F7842B11968C93119781E09F
:1004B0008983DEC01982DCC08C81823009F0D5C00E
:1004C0008A81282F30E03E832D838D819E8182306A
:1004D000910509F444C02D813E812330310534F467
:1004E0008D819E818130910571F0BDC02D813E814D
:1004F0002330310509F45FC08D819E8184309105E0
:1005000009F485C0B0C0A9E3B0E0E9E3F0E081817F
:10051000482F8B81282F30E081E090E002C0880FC7
:10052000991F2A95E2F78095842311968C93A9E36D
:10053000B0E0E9E3F0E08281482F8B81282F30E0A2
:1005400081E090E0022E02C0880F991F0A94E2F722
:10055000842B12968C93129781E0898389C0A6E33D
:10056000B0E0E6E3F0E08181482F8B81282F30E076
:1005700081E090E002C0880F991F2A95E2F78095EC
:10058000842311968C93A6E3B0E0E6E3F0E0828149
:10059000482F8B81282F30E081E090E0022E02C0AE
:1005A000880F991F0A94E2F7842B12968C93129766
:1005B00081E089835DC0A3E3B0E0E3E3F0E0818103
:1005C000482F8B81282F30E081E090E002C0880F17
:1005D000991F2A95E2F78095842311968C93A3E3C3
:1005E000B0E0E3E3F0E08281482F8B81282F30E0F8
:1005F00081E090E0022E02C0880F991F0A94E2F772
:10060000842B12968C93129781E0898331C0A0E3EA
:10061000B0E0E0E3F0E08181482F8B81282F30E0CB
:1006200081E090E002C0880F991F2A95E2F780953B
:10063000842311968C93A0E3B0E0E0E3F0E08281A4
:10064000482F8B81282F30E081E090E0022E02C0FD
:10065000880F991F0A94E2F7842B12968C931297B5
:1006600081E0898305C0198203C0198201C0198203
:1006700089812A960FB6F894DEBF0FBECDBFCF9109
:10068000DF910895DF93CF93CDB7DEB728970FB6EC
:10069000F894DEBF0FBECDBF8A836B834C83198273
:1006A0008B81883008F012C18C81823009F083C0C0
:1006B0008A81282F30E038872F838F819885823078
:1006C000910579F12F8138852330310534F48F81FC
:1006D00098858130910569F06CC02F813885233071
:1006E0003105B9F18F8198858430910509F449C0AD
:1006F00060C0A9E3B0E0E9E3F0E08281482F8B819C
:10070000282F30E081E090E0022E02C0880F991F70
:100710000A94E2F7842B12968C93129781E08983D6
:10072000D6C0A6E3B0E0E6E3F0E08281482F8B81FB
:10073000282F30E081E090E0022E02C0880F991F40
:100740000A94E2F7842B12968C93129781E08983A6
:10075000BEC0A3E3B0E0E3E3F0E08281482F8B81E9
:10076000282F30E081E090E0022E02C0880F991F10
:100770000A94E2F7842B12968C93129781E0898376
:10078000A6C0A0E3B0E0E0E3F0E08281482F8B81D7
:10079000282F30E081E090E0022E02C0880F991FE0
:1007A0000A94E2F7842B12968C93129781E0898346
:1007B0008EC019828CC08C81813009F088C08A81FA
:1007C000282F30E03E832D838D819E8182309105DC
:1007D00081F12D813E812330310534F48D819E815C
:1007E0008130910569F070C02D813E812330310543
:1007F000C9F18D819E818430910509F44CC064C09B
:10080000A9E3B0E0E9E3F0E08281482F8B81282F53
:1008100030E081E090E0022E02C0880F991F0A9418
:10082000E2F78095842312968C93129781E0898356
:100830004EC0A6E3B0E0E6E3F0E08281482F8B8172
:10084000282F30E081E090E0022E02C0880F991F2F
:100850000A94E2F78095842312968C93129781E094
:10086000898335C0A3E3B0E0E3E3F0E08281482F61
:100870008B81282F30E081E090E0022E02C0880FAB
:10088000991F0A94E2F78095842312968C9312970D
:1008900081E089831CC0A0E3B0E0E0E3F0E0828166
:1008A000482F8B81282F30E081E090E0022E02C09B
:1008B000880F991F0A94E2F78095842312968C93EF
:1008C000129781E0898303C0198201C0198289814E
:1008D00028960FB6F894DEBF0FBECDBFCF91DF9143
:1008E0000895DF93CF93CDB7DEB727970FB6F8946F
:1008F000DEBF0FBECDBF8A836B835D834C831982BD
:100900008C819D81009719F482E0898380C08B815E
:10091000883008F07BC08A81282F30E03F832E8307
:100920004E815F814230510569F18E819F81833014
:10093000910534F42E813F812130310569F064C086
:100940004E815F814330510599F18E819F818430C2
:10095000910509F443C058C0E9E3F0E08081282FF5
:1009600030E08B81882F90E0A90102C05595479512
:100970008A95E2F7CA018170EC81FD81808381E074
:10098000898345C0E6E3F0E08081282F30E08B8149
:10099000882F90E0A90102C0559547958A95E2F706
:1009A000CA018170EC81FD81808381E089832FC041
:1009B000E3E3F0E08081282F30E08B81882F90E006
:1009C000A90102C0559547958A95E2F7CA01817041
:1009D000EC81FD81808381E0898319C0E0E3F0E050
:1009E0008081282F30E08B81882F90E0A90102C000
:1009F000559547958A95E2F7CA018170EC81FD8192
:100A0000808381E0898303C0198201C019828981B2
:100A100027960FB6F894DEBF0FBECDBFCF91DF9102
:100A20000895DF93CF93CDB7DEB72D970FB6F89427
:100A3000DEBF0FBECDBF8A836B8319828B81282FC7
:100A400030E03D872C878C859D858230910509F4A7
:100A5000BBC02C853D852330310534F48C859D85C4
:100A60008130910569F0F0C02C853D85233031053A
:100A700009F46AC08C859D858430910599F1E4C0A4
:100A80008A81282F30E03B872A878A859B8586309C
:100A9000910531F02A853B852730310589F020C04A
:100AA000A5E5B0E0E5E5F0E080818E7F8C93A5E5DB
:100AB000B0E0E5E5F0E080818D7F8C9381E0898373
:100AC000A5E5B0E0E5E5F0E080818B7F8C93A5E5BE
:100AD000B0E0E5E5F0E08081877F8C9381E0898359
:100AE0001982B3C08A81282F30E03987288788850A
:100AF00099858630910531F0288539852730310573
:100B000089F020C0A5E5B0E0E5E5F0E080818160F6
:100B10008C93A5E5B0E0E5E5F0E080818D7F8C93D6
:100B200081E08983A5E5B0E0E5E5F0E080818460BF
:100B30008C93A5E5B0E0E5E5F0E08081877F8C93BC
:100B400081E08983198281C08A81282F30E03F8328
:100B50002E838E819F818630910559F02E813F81B1
:100B600027303105B1F08E819F818530910509F1E3
:100B700029C0A5E5B0E0E5E5F0E080818E7F8C93AB
:100B8000A5E5B0E0E5E5F0E0808182608C9381E04E
:100B90008983A5E5B0E0E5E5F0E080818B7F8C936B
:100BA000A5E5B0E0E5E5F0E0808188608C9381E028
:100BB0008983A4E5B0E0E4E5F0E080818F7B8C934D
:100BC00081E08983198241C08A81282F30E03D83EA
:100BD0002C838C819D818630910559F02C813D813B
:100BE00027303105B1F08C819D818530910509F167
:100BF00029C0A5E5B0E0E5E5F0E0808181608C9357
:100C0000A5E5B0E0E5E5F0E0808182608C9381E0CD
:100C10008983A5E5B0E0E5E5F0E0808184608C9310
:100C2000A5E5B0E0E5E5F0E0808188608C9381E0A7
:100C30008983A4E5B0E0E4E5F0E0808180648C93F2
:100C400081E08983198201C0198289812D960FB6AE
:100C5000F894DEBF0FBECDBFCF91DF910895DF9333
:100C6000CF9300D0CDB7DEB78A8319828A818530D1
:100C7000C8F08A818830B0F4ABE5B0E0EBE5F0E095
:100C80008081482F8A81282F30E081E090E0022E79
:100C900002C0880F991F0A94E2F7842B8C9381E09D
:100CA000898301C0198289810F900F90CF91DF91C4
:100CB0000895DF93CF9300D0CDB7DEB78A83198232
:100CC0008A818530D0F08A818830B8F4ABE5B0E015
:100CD000EBE5F0E08081482F8A81282F30E081E029
:100CE00090E0022E02C0880F991F0A94E2F78095C7
:100CF00084238C9381E0898301C0198289810F90BC
:100D00000F90CF91DF910895DF93CF93CDB7DEB7EA
:100D100027970FB6F894DEBF0FBECDBF9C838B83A1
:100D20006D831A828B819C81009799F119828D8144
:100D3000282F30E03F832E838E819F81863091055E
:100D400059F02E813F812730310579F08E819F81C6
:100D50008530910599F01BC08B819C819093610037
:100D60008093600081E0898316C08B819C81909381
:100D700063008093620081E089830DC08B819C8138
:100D8000909365008093640081E0898304C0198298
:100D900002C082E08A838A8127960FB6F894DEBF6C
:100DA0000FBECDBFCF91DF9108951F920F920FB666
:100DB0000F9211242F933F934F935F936F937F93E1
:100DC0008F939F93AF93BF93EF93FF93DF93CF9353
:100DD000CDB7DEB78091600090916100009729F057
:100DE000E0916000F09161000995CF91DF91FF9152
:100DF000EF91BF91AF919F918F917F916F915F9193
:100E00004F913F912F910F900FBE0F901F9018950B
:100E10001F920F920FB60F9211242F933F934F936F
:100E20005F936F937F938F939F93AF93BF93EF9352
:100E3000FF93DF93CF93CDB7DEB78091620090919F
:100E40006300009729F0E0916200F091630009953A
:100E5000CF91DF91FF91EF91BF91AF919F918F91D2
:100E60007F916F915F914F913F912F910F900FBEA6
:100E70000F901F9018951F920F920FB60F9211248A
:100E80002F933F934F935F936F937F938F939F9392
:100E9000AF93BF93EF93FF93DF93CF93CDB7DEB7BD
:100EA0008091640090916500009729F0E0916400C2
:100EB000F09165000995CF91DF91FF91EF91BF917E
:100EC000AF919F918F917F916F915F914F913F91E2
:100ED0002F910F900FBE0F901F901895DF93CF9317
:100EE000CDB7DEB7AFE5B0E0EFE5F0E08081806838
:100EF0008C93CF91DF910895DF93CF93CDB7DEB779
:100F0000AFE5B0E0EFE5F0E080818F778C93CF9193
:100F1000DF910895DF93CF93CDB7DEB781E060E036
:100F200041E00E94380181E061E041E00E94380127
:100F300081E060E041E00E94420381E061E041E045
:100F40000E94420384E062E042E00E94380184E0B3
:100F500063E042E00E94380186E063E00E941105F0
:100F600087E063E00E94110586E00E942F0687E07B
:100F70000E942F0687EC97E066E00E94840682EECE
:100F800097E067E00E9484060E946E07FFCFDF9320
:100F9000CF93CDB7DEB780916600882349F481E016
:100FA00060E042E00E94420381E08093660007C057
:100FB00081E060E041E00E94420310926600CF9120
:100FC000DF910895DF93CF93CDB7DEB780916700AF
:100FD000882349F481E061E042E00E94420381E01D
:100FE0008093670007C081E061E041E00E94420316
:0E0FF00010926700CF91DF910895F894FFCF23
:00000001FF
