:100000000C942A000C943F000C943F000C943F0089
:100010000C943F000C943F000C943F000C943F0064
:100020000C943F000C943F000C943F000C943F0054
:100030000C943F000C943F000C943F000C943F0044
:100040000C943F000C943F000C943F000C943F0034
:100050000C943F0011241FBECFE5D8E0DEBFCDBF1A
:1000600011E0A0E6B0E0E0E5FDE202C005900D92EF
:10007000A836B107D9F70E9447150C94A6160C9420
:100080000000EF92FF920F931F937B018C0120E001
:1000900030E040E05FE40E94ED0388238CF0C8016B
:1000A000B70120E030E040E05FE40E94B9010E9427
:1000B000AB049B01AC01205030404040504806C08A
:1000C000C801B7010E94AB049B01AC01B901CA0190
:1000D0001F910F91FF90EF900895A0E0B0E0E3E74B
:1000E000F0E00C942A16DC012B01FA019C9192306D
:1000F00008F439C1EB018881823008F433C19430AF
:1001000069F4843009F02FC111969C91119789816F
:10011000981709F428C1A0E6B0E025C1843009F49D
:1001200021C18230A9F4923009F01DC19A01AD01BC
:1001300088E0EA010990AE01E90109929E0181502F
:10014000C1F7E201898111969C918923818308C1BD
:10015000923009F407C112962D903C901397EB0151
:100160008A819B811496AD90BD90CD90DC901797BD
:10017000EC80FD800E811F819101281B390BB90194
:1001800037FF04C066277727621B730B6032710547
:100190000CF061C0121613066CF537014801062EEB
:1001A00004C096948794779467940A94D2F721E0D8
:1001B00030E040E050E004C0220F331F441F551FC1
:1001C0006A95D2F721503040404050402E213F21C7
:1001D00040235123211531054105510521F021E02E
:1001E00030E040E050E079018A01E628F72808294C
:1001F00019293CC0232BD1F1260E371E35014601AB
:10020000062E04C096948794779467940A94D2F744
:1002100021E030E040E050E004C0220F331F441FD3
:10022000551F6A95D2F721503040404050402A2156
:100230003B214C215D21211531054105510521F05E
:1002400021E030E040E050E059016A01A628B728DB
:10025000C828D9280BC0821593052CF01C01AA24AC
:10026000BB24650103C0EE24FF24870111969C91F5
:10027000D20111968C91981709F445C0992339F051
:10028000A80197012A193B094C095D0906C0A6017E
:1002900095012E193F09400B510B57FD08C01182E3
:1002A0003382228224833583468357831DC081E0B5
:1002B00081833382228288279927DC01821B930B5A
:1002C000A40BB50B84839583A683B7830DC0220F3F
:1002D000331F441F551F24833583468357838281F0
:1002E000938101979383828324813581468157814D
:1002F000DA01C9010197A109B1098F5F9F4FAF4F83
:10030000BF4328F30BC0918333822282EA0CFB1C8B
:100310000C1D1D1DE482F5820683178383E0808314
:10032000248135814681578157FF1AC0C901AA2708
:1003300097FDA095BA2F81709070A070B0705695FF
:10034000479537952795822B932BA42BB52B848328
:100350009583A683B7838281938101969383828359
:10036000DF0101C0D201CD01CDB7DEB7E2E10C94CF
:100370004616A0E2B0E0EFEBF1E00C94361669838C
:100380007A838B839C832D833E834F835887E9E058
:10039000EE2EF12CEC0EFD1ECE010196B7010E944F
:1003A00023068E010F5E1F4FCE010596B8010E94F5
:1003B00023068A8991E089278A8BC701B801AE019B
:1003C000475E5F4F0E946D000E944E05A096E6E0DA
:1003D0000C945216A0E2B0E0E0EFF1E00C94361677
:1003E00069837A838B839C832D833E834F835887D5
:1003F000F9E0EF2EF12CEC0EFD1ECE010196B701B7
:100400000E9423068E010F5E1F4FCE010596B80194
:100410000E942306C701B801AE01475E5F4F0E94EC
:100420006D000E944E05A096E6E00C945216A0E2E4
:10043000B0E0EDE1F2E00C942A1669837A838B83B5
:100440009C832D833E834F835887CE010196BE0146
:10045000675F7F4F0E942306CE010596BE016F5E47
:100460007F4F0E9423069985923088F089898230D7
:10047000C8F0943019F4823051F404C0843029F467
:10048000923081F480E690E0C6C0923049F420E0DA
:100490009A858A89981321E02A87CE010996BBC0E4
:1004A000823049F420E09A858A89981321E02A8BCA
:1004B000CE014196B0C02D843E844F8458886D880B
:1004C0007E888F88988CEE24FF248701AA24BB2481
:1004D000650140E050E060E070E0E0E0F0E0C10184
:1004E00081709070892BE9F0E60CF71C081D191D2E
:1004F0009A01AB012A0D3B1D4C1D5D1D80E090E073
:10050000A0E0B0E0E614F7040805190520F481E046
:1005100090E0A0E0B0E0BA01A901480F591F6A1F9E
:100520007B1FAA0CBB1CCC1CDD1C97FE08C081E005
:1005300090E0A0E0B0E0A82AB92ACA2ADB2A3196C6
:10054000E032F10549F0660C771C881C991C569422
:10055000479437942794C3CFFA85EA892B893C893D
:100560008B859C85280F391F2E5F3F4F17C0CA010E
:1005700081709070892B61F016950795F794E79438
:1005800080E090E0A0E0B0E8E82AF92A0A2B1B2BD3
:1005900076956795579547952F5F3F4F77FDE7CF46
:1005A0000CC0440F551F661F771F17FD4160EE0CEE
:1005B000FF1C001F111F21503040403090E05907B0
:1005C00090E0690790E4790760F32B8F3C8FDB01A3
:1005D000CA018F779070A070B07080349105A1052A
:1005E000B10561F447FD0AC0E114F10401051105EC
:1005F00029F0405C5F4F6F4F7F4F40781A8EFE1797
:1006000011F081E08A8F4D8F5E8F6F8F78A383E02A
:10061000898FCE0149960E944E05A096E2E10C9486
:100620004616A8E1B0E0E7E1F3E00C9432166983E6
:100630007A838B839C832D833E834F835887B9E0D5
:10064000EB2EF12CEC0EFD1ECE010196B7010E949F
:1006500023068E010F5E1F4FCE010596B8010E9442
:1006600023062985223008F47EC03989323010F4FF
:10067000B8017CC08A859A8989278A87243011F03D
:10068000223031F4231709F06EC060E670E06EC0CE
:10069000343039F41D861E861F86188A1C861B86F8
:1006A00004C0323021F484E08987B7015FC02B8514
:1006B0003C858B899C89281B390B3C872B87ED84D3
:1006C000FE840F851889AD88BE88CF88D88CEA143F
:1006D000FB040C051D0540F4EE0CFF1C001F111F50
:1006E000215030403C872B8720E030E040E050E054
:1006F00080E090E0A0E0B0E460E070E0EA14FB0489
:100700000C051D0540F0282B392B4A2B5B2BEA18D2
:10071000FB080C091D09B695A79597958795EE0CD2
:10072000FF1C001F111F6F5F7F4F6F31710531F785
:10073000DA01C9018F779070A070B0708034910594
:10074000A105B10561F427FD0AC0E114F10401051A
:10075000110529F0205C3F4F4F4F5F4F20782D87C8
:100760003E874F87588BBE01675F7F4FCB010E944A
:100770004E056896EAE00C944E16A8E1B0E0E3EC72
:10078000F3E00C94361669837A838B839C832D83E4
:100790003E834F83588789E0E82EF12CEC0EFD1E36
:1007A000CE010196B7010E9423068E010F5E1F4FF6
:1007B000CE010596B8010E9423068985823040F05B
:1007C0008989823028F0C701B8010E949B0601C0C8
:1007D0008FEF6896E6E00C945216A8E1B0E0E3EFE4
:1007E000F3E00C94361669837A838B839C832D8384
:1007F0003E834F83588789E0E82EF12CEC0EFD1ED6
:10080000CE010196B7010E9423068E010F5E1F4F95
:10081000CE010596B8010E9423068985823040F0FA
:100820008989823028F0C701B8010E949B0601C067
:100830008FEF6896E6E00C945216A8E1B0E0E3E290
:10084000F4E00C94361669837A838B839C832D8322
:100850003E834F83588789E0E82EF12CEC0EFD1E75
:10086000CE010196B7010E9423068E010F5E1F4F35
:10087000CE010596B8010E9423068985823040F09A
:100880008989823028F0C701B8010E949B0601C007
:1008900081E06896E6E00C945216A8E0B0E0E3E54B
:1008A000F4E00C9433169B01AC0183E08983DA01F8
:1008B000C9018827B7FD83959927AA27BB27B82E9A
:1008C000211531054105510519F482E089833AC0AB
:1008D0008823A9F0203080E0380780E0480780E8CE
:1008E000580729F460E070E080E09FEC30C0EE240F
:1008F000FF248701E21AF30A040B150B02C07901E9
:100900008A018EE1C82ED12CDC82CB82ED82FE8260
:100910000F831887C801B7010E94FF0401971816BA
:10092000190684F4082E04C0EE0CFF1C001F111FD2
:100930000A94D2F7ED82FE820F831887C81AD90A6B
:10094000DC82CB82BA82CE0101960E944E052896A7
:10095000E9E00C944F16ACE0B0E0E1EBF4E00C946D
:100960003A1669837A838B839C83CE010196BE01FC
:100970006B5F7F4F0E9423068D81823061F1823050
:1009800050F1843021F48E81882351F12EC02F81C3
:10099000388537FD20C06E812F3131051CF066236C
:1009A000F9F023C08EE190E0821B930B29853A85F4
:1009B0004B855C8504C056954795379527958A9554
:1009C000D2F76623B1F050954095309521953F4F71
:1009D0004F4F5F4F0EC020E030E040E050E009C0D4
:1009E0002FEF3FEF4FEF5FE704C020E030E040E043
:1009F00050E8B901CA012C96E2E00C945616EF9229
:100A0000FF920F931F937B018C0180E0E81680E03A
:100A1000F80681E0080780E0180788F48FEFE816F1
:100A2000F1040105110531F028F088E090E0A0E024
:100A3000B0E017C080E090E0A0E0B0E012C080E03D
:100A4000E81680E0F80680E0080781E0180728F043
:100A500088E190E0A0E0B0E004C080E190E0A0E098
:100A6000B0E020E230E040E050E0281B390B4A0BB8
:100A70005B0B04C016950795F794E7948A95D2F717
:100A8000F701E859FF4F8081281B310941095109BD
:100A9000C9011F910F91FF90EF900895DF92EF929F
:100AA000FF920F931F93FC01E480F580068117816C
:100AB000D1808081823048F480E090E0A0E1B0E015
:100AC000E82AF92A0A2B1B2BA5C0843009F49FC001
:100AD000823021F4EE24FF24870105C0E114F104E3
:100AE0000105110519F4E0E0F0E096C06281738120
:100AF0009FEF623879070CF05BC022E83FEF261BBE
:100B0000370B2A3131052CF020E030E040E050E096
:100B10002AC0B801A701022E04C0769567955795A3
:100B200047950A94D2F781E090E0A0E0B0E004C0DD
:100B3000880F991FAA1FBB1F2A95D2F70197A109F9
:100B4000B1098E219F21A023B1230097A105B105F2
:100B500021F081E090E0A0E0B0E09A01AB01282B09
:100B6000392B4A2B5B2BDA01C9018F779070A0706B
:100B7000B07080349105A105B10539F427FF09C093
:100B8000205C3F4F4F4F5F4F04C0215C3F4F4F4FA2
:100B90005F4FE0E0F0E02030A0E03A07A0E04A0735
:100BA000A0E45A0710F0E1E0F0E079018A0127C0E3
:100BB0006038710564F5FB01E158FF4FD801C701AA
:100BC0008F779070A070B07080349105A105B10549
:100BD00039F4E7FE0DC080E490E0A0E0B0E004C08E
:100BE0008FE390E0A0E0B0E0E80EF91E0A1F1B1FA3
:100BF00017FF05C016950795F794E794319687E09F
:100C000016950795F794E7948A95D1F705C0EE24D9
:100C1000FF248701EFEFF0E06E2F67956627679559
:100C2000902F9F77D794DD24D7948E2F8695492FC8
:100C3000462B582F5D29B701CA011F910F91FF90D4
:100C4000EF90DF900895FC01DB014081518122810A
:100C5000622F6F7770E0221F2227221F9381892F36
:100C6000880F822B282F30E0991F9927991F119602
:100C70009C93119721153105A9F541155105610581
:100C8000710511F482E037C082E89FEF13969C93C0
:100C90008E9312979A01AB0167E0220F331F441F16
:100CA000551F6A95D1F783E08C930DC0220F331F37
:100CB000441F551F12968D919C911397019713967F
:100CC0009C938E931297203080E0380780E048078D
:100CD00080E4580758F314962D933D934D935C93FD
:100CE000179708952F3F310579F441155105610596
:100CF000710519F484E08C93089564FF03C081E0CA
:100D00008C9312C01C9210C02F57304013963C9306
:100D10002E93129783E08C9387E0440F551F661F34
:100D2000771F8A95D1F7706414964D935D936D93F8
:100D30007C93179708951F93DC01FB019C919230DF
:100D400008F447C08081823008F443C0943051F4E5
:100D500011961C91843099F58181682F70E0611B98
:100D600071093FC0843021F0923031F48230B9F102
:100D70008181882389F12DC011961C9111978230B1
:100D8000F1F081811817D9F412962D913C911397A7
:100D9000828193818217930794F028173907BCF05A
:100DA00014968D919D910D90BC91A02D248135813B
:100DB00046815781281739074A075B0718F4112322
:100DC00041F00AC082179307A407B50740F4112326
:100DD00019F061E070E005C06FEF7FEF02C060E0E6
:100DE00070E0CB011F910895DF93CF93CDB7DEB7AD
:100DF000EE970FB6F894DEBF0FBECDBF83E06FEF66
:100E00000E949A0F83E061E00E94EA0F82E061E0B5
:100E100041E00E94941082E062E041E00E94941060
:100E200082E063E041E00E94941083E30E94120B91
:100E300082E30E94120B88E30E94120B80E090E094
:100E4000A8E4B2E48BAF9CAFADAFBEAF6BAD7CADF1
:100E50008DAD9EAD2BEA3AEA4AE250E40E941702B9
:100E6000DC01CB018FAB98AFA9AFBAAF6FA978AD5A
:100E700089AD9AAD20E030E040E85FE30E941D04B8
:100E800088231CF481E08EAB91C06FA978AD89AD49
:100E90009AAD20E030E04FE753E40E94BD031816FE
:100EA0000CF07BC06BAD7CAD8DAD9EAD20E030E035
:100EB0004AE754E40E941103DC01CB018AAB9BABEF
:100EC000ACABBDAB6AA97BA98CA99DA920E030E0A1
:100ED0004AEF54E40E941702DC01CB018EA79FA7C2
:100EE000A8ABB9AB6EA57FA588A999A920E030E091
:100EF00040E85FE30E941D0488232CF481E090E029
:100F00009DA78CA73FC06EA57FA588A999A920E0C1
:100F10003FEF4FE757E40E94BD0318164CF56AA94E
:100F20007BA98CA99DA920E030E040E251E40E9419
:100F30001702DC01CB01BC01CD010E944100DC01A4
:100F4000CB019DA78CA70FC088EC90E09BA78AA738
:100F50008AA59BA50197F1F79BA78AA78CA59DA5BC
:100F600001979DA78CA78CA59DA5009769F724C024
:100F70006EA57FA588A999A90E944100DC01CB013B
:100F80009DA78CA78CA59DA599A788A788A599A59D
:100F90000197F1F799A788A70FC06FA978AD89AD20
:100FA0009AAD0E944100DC01CB018EAB8EA98FA3CC
:100FB0008FA18A95F1F78FA38CE00E94120B80E03D
:100FC00090E0A8E4B2E48BA39CA3ADA3BEA36BA165
:100FD0007CA18DA19EA12BEA3AEA4AE250E40E944C
:100FE0001702DC01CB018F8F98A3A9A3BAA36F8D41
:100FF00078A189A19AA120E030E040E85FE30E9457
:101000001D0488231CF481E08E8F91C06F8D78A120
:1010100089A19AA120E030E04FE753E40E94BD038C
:1010200018160CF07BC06BA17CA18DA19EA120E0C5
:1010300030E04AE754E40E941103DC01CB018A8FBF
:101040009B8FAC8FBD8F6A8D7B8D8C8D9D8D20E0AD
:1010500030E04AEF54E40E941702DC01CB018E8B92
:101060009F8BA88FB98F6E897F89888D998D20E09D
:1010700030E040E85FE30E941D0488232CF481E007
:1010800090E09D8B8C8B3FC06E897F89888D998D78
:1010900020E03FEF4FE757E40E94BD0318164CF5E0
:1010A0006A8D7B8D8C8D9D8D20E030E040E251E497
:1010B0000E941702DC01CB01BC01CD010E9441005E
:1010C000DC01CB019D8B8C8B0FC088EC90E09B8B5F
:1010D0008A8B8A899B890197F1F79B8B8A8B8C89F4
:1010E0009D8901979D8B8C8B8C899D89009769F7D1
:1010F00024C06E897F89888D998D0E944100DC0112
:10110000CB019D8B8C8B8C899D89998B888B888951
:1011100099890197F1F7998B888B0FC06F8D78A112
:1011200089A19AA10E944100DC01CB018E8F8E8D96
:101130008F878F858A95F1F78F8781E00E94120B48
:1011400080E090E0A0E0B0E48B879C87AD87BE870D
:101150006B857C858D859E8520E030E04AEF54E4E8
:101160000E941702DC01CB018F839887A987BA8779
:101170006F81788589859A8520E030E040E85FE3DB
:101180000E941D0488232CF481E090E09E838D83CF
:101190003FC06F81788589859A8520E03FEF4FE7D2
:1011A00057E40E94BD0318164CF56B857C858D8530
:1011B0009E8520E030E040E251E40E941702DC010D
:1011C000CB01BC01CD010E944100DC01CB019E831B
:1011D0008D830FC088EC90E09C838B838B819C81F6
:1011E0000197F1F79C838B838D819E8101979E836C
:1011F0008D838D819E81009769F714C06F817885FA
:1012000089859A850E944100DC01CB019E838D83F4
:101210008D819E819A83898389819A810197F1F7D3
:101220009A83898386E00E94120BEE960FB6F8949B
:10123000DEBF0FBECDBFCF91DF910895DF93CF9377
:10124000CDB7DEB7E9970FB6F894DEBF0FBECDBFBE
:1012500089AF82E061E042E00E949E1282E062E09B
:1012600041E00E949E1280E090E0A0E8BFE38DABD9
:101270009EABAFABB8AF6DA97EA98FA998AD20E0AA
:1012800030E04AEF54E40E941702DC01CB0189AB45
:101290009AABABABBCAB69A97AA98BA99CA920E09E
:1012A00030E040E85FE30E941D0488232CF481E0D5
:1012B00090E098AB8FA73FC069A97AA98BA99CA998
:1012C00020E03FEF4FE757E40E94BD0318164CF5AE
:1012D0006DA97EA98FA998AD20E030E040E251E4ED
:1012E0000E941702DC01CB01BC01CD010E9441002C
:1012F000DC01CB0198AB8FA70FC088EC90E09EA7D4
:101300008DA78DA59EA50197F1F79EA78DA78FA507
:1013100098A9019798AB8FA78FA598A9009769F70F
:1013200014C069A97AA98BA99CA90E944100DC017B
:10133000CB0198AB8FA78FA598A99CA78BA78BA54E
:101340009CA50197F1F79CA78BA782E063E042E0A0
:101350000E949E1280E090E0A0E8BFE38FA398A7D0
:10136000A9A7BAA76FA178A589A59AA520E030E022
:101370004AEF54E40E941702DC01CB018BA39CA32B
:10138000ADA3BEA36BA17CA18DA19EA120E030E006
:1013900040E85FE30E941D0488232CF481E090E084
:1013A0009AA389A33FC06BA17CA18DA19EA120E03F
:1013B0003FEF4FE757E40E94BD0318164CF56FA1AD
:1013C00078A589A59AA520E030E040E251E40E948A
:1013D0001702DC01CB01BC01CD010E944100DC0100
:1013E000CB019AA389A30FC088EC90E098A38F8FBC
:1013F0008F8D98A10197F1F798A38F8F89A19AA15A
:1014000001979AA389A389A19AA1009769F714C0AB
:101410006BA17CA18DA19EA10E944100DC01CB01AA
:101420009AA389A389A19AA19E8F8D8F8D8D9E8D60
:101430000197F1F79E8F8D8F83E069AD0E94EA0FCF
:1014400080E090E0A0E8BFE3898F9A8FAB8FBC8FDC
:10145000698D7A8D8B8D9C8D20E030E04AEF54E4CD
:101460000E941702DC01CB018D8B9E8BAF8BB88F56
:101470006D897E898F89988D20E030E040E85FE3B8
:101480000E941D0488232CF481E090E09C8B8B8BC0
:101490003FC06D897E898F89988D20E03FEF4FE7AF
:1014A00057E40E94BD0318164CF5698D7A8D8B8D1B
:1014B0009C8D20E030E040E251E40E941702DC0104
:1014C000CB01BC01CD010E944100DC01CB019C8B12
:1014D0008B8B0FC088EC90E09A8B898B89899A89D5
:1014E0000197F1F79A8B898B8B899C8901979C8B4B
:1014F0008B8B8B899C89009769F714C06D897E89D5
:101500008F89988D0E944100DC01CB019C8B8B8BD5
:101510008B899C89988B8F878F8598890197F1F7A4
:10152000988B8F8782E063E041E00E949E1280E00A
:1015300090E0A0E0B0E48B879C87AD87BE876B8589
:101540007C858D859E8520E030E04AEF54E40E9442
:101550001702DC01CB018F839887A987BA876F8137
:10156000788589859A8520E030E040E85FE30E9435
:101570001D0488232CF481E090E09E838D833FC07E
:101580006F81788589859A8520E03FEF4FE757E4A2
:101590000E94BD0318164CF56B857C858D859E8554
:1015A00020E030E040E251E40E941702DC01CB0170
:1015B000BC01CD010E944100DC01CB019E838D83E3
:1015C0000FC088EC90E09C838B838B819C8101977A
:1015D000F1F79C838B838D819E8101979E838D8300
:1015E0008D819E81009769F714C06F817885898508
:1015F0009A850E944100DC01CB019E838D838D8101
:101600009E819A83898389819A810197F1F79A83D0
:101610008983E9960FB6F894DEBF0FBECDBFCF9198
:10162000DF910895DF93CF93CDB7DEB76D970FB6F7
:10163000F894DEBF0FBECDBF8D8F82E061E041E048
:101640000E949E1282E062E041E00E949E1282E0CF
:1016500063E042E00E949E1280E090E0A0E8BFE3D9
:10166000898F9A8FAB8FBC8F698D7A8D8B8D9C8D76
:1016700020E030E04AEF54E40E941702DC01CB0185
:101680008D8B9E8BAF8BB88F6D897E898F89988D5E
:1016900020E030E040E85FE30E941D0488232CF442
:1016A00081E090E09C8B8B8B3FC06D897E898F8918
:1016B000988D20E03FEF4FE757E40E94BD031816D6
:1016C0004CF5698D7A8D8B8D9C8D20E030E040E269
:1016D00051E40E941702DC01CB01BC01CD010E9444
:1016E0004100DC01CB019C8B8B8B0FC088EC90E020
:1016F0009A8B898B89899A890197F1F79A8B898BC3
:101700008B899C8901979C8B8B8B8B899C890097FB
:1017100069F714C06D897E898F89988D0E94410078
:10172000DC01CB019C8B8B8B8B899C89988B8F8761
:101730008F8598890197F1F7988B8F8783E06D8D5E
:101740000E94EA0F80E090E0A0E8BFE38B879C87CF
:10175000AD87BE876B857C858D859E8520E030E0DA
:101760004AEF54E40E941702DC01CB018F83988773
:10177000A987BA876F81788589859A8520E030E0CE
:1017800040E85FE30E941D0488232CF481E090E090
:101790009E838D833FC06F81788589859A8520E0FF
:1017A0003FEF4FE757E40E94BD0318164CF56B85D9
:1017B0007C858D859E8520E030E040E251E40E94EA
:1017C0001702DC01CB01BC01CD010E944100DC010C
:1017D000CB019E838D830FC088EC90E09C838B832C
:1017E0008B819C810197F1F79C838B838D819E81F6
:1017F00001979E838D838D819E81009769F714C028
:101800006F81788589859A850E944100DC01CB0132
:101810009E838D838D819E819A83898389819A811C
:101820000197F1F79A83898382E063E041E00E94A7
:101830009E126D960FB6F894DEBF0FBECDBFCF914E
:10184000DF910895DF93CF9300D00F92CDB7DEB72D
:101850009B838A838A819B810097D1F01982898139
:10186000282F30E08A819B81FC01E20FF31F8081E9
:101870000E941E0989818F5F89838981282F30E02A
:101880008A819B81FC01E20FF31F8081882339F755
:101890000F900F900F90CF91DF910895DF93CF932A
:1018A00000D0CDB7DEB789836A838981882F90E025
:1018B000880F991F880F991F982F9295907F8A8182
:1018C000890F80580E94120B0F900F90CF91DF91DB
:1018D0000895DF93CF9300D000D00F92CDB7DEB73D
:1018E0009C838B836D831A828D81883030F58D8146
:1018F000882F90E0880F991F880F991F880F991FD4
:101900008A838A8180648A838A810E94120B198269
:101910000EC08981282F30E08B819C81FC01E20F71
:10192000F31F80810E941E0989818F5F89838981CD
:10193000883078F382E00E94120B0F900F900F9086
:101940000F900F90CF91DF910895DF93CF93CDB794
:10195000DEB781E00E94120BCF91DF910895DF93F3
:10196000CF93CDB7DEB766970FB6F894DEBF0FBE44
:10197000CDBF8E8B8E89882F90E09E012F5F3F4FC9
:10198000B9014AE050E00E946116CE0101960E9422
:10199000220C66960FB6F894DEBF0FBECDBFCF9176
:1019A000DF910895DF93CF93CDB7DEB727970FB6BA
:1019B000F894DEBF0FBECDBF8A836B8319828A8104
:1019C000882309F404C18A81843008F000C18B8126
:1019D000882309F4FCC08B81883008F0F8C08B8123
:1019E000282F30E03F832E838E819F8184309105A4
:1019F00009F45EC02E813F812530310584F48E814B
:101A00009F818230910581F12E813F812330310504
:101A1000ECF58E819F8181309105A1F091C02E81DE
:101A20003F812630310509F467C08E819F81863061
:101A300091050CF44FC02E813F812730310509F408
:101A40006DC07EC0E6E2F0E080818B7F8083E6E2BD
:101A5000F0E080818D7F8083E6E2F0E0808181602C
:101A6000808381E089836DC0E6E2F0E080818B7F36
:101A70008083E6E2F0E0808182608083E6E2F0E04D
:101A800080818E7F808381E089835BC0E6E2F0E025
:101A900080818B7F8083E6E2F0E0808182608083BA
:101AA000E6E2F0E080818160808381E0898349C043
:101AB000E6E2F0E0808184608083E6E2F0E080810D
:101AC0008D7F8083E6E2F0E080818E7F808381E0FD
:101AD000898337C0E6E2F0E0808184608083E6E2BB
:101AE000F0E080818D7F8083E6E2F0E0808181609C
:101AF000808381E0898325C0E6E2F0E08081846014
:101B00008083E6E2F0E0808182608083E6E2F0E0BC
:101B100080818E7F808381E0898313C0E6E2F0E0DC
:101B2000808184608083E6E2F0E08081826080834F
:101B3000E6E2F0E080818160808381E0898301C0FA
:101B400019828A81282F30E03D832C838C819D81EE
:101B500082309105B9F02C813D8123303105F9F0B7
:101B60008C819D818130910539F5E7E2F0E080813B
:101B70008F7B8083E7E2F0E080818F7B808381E050
:101B800089831BC0E7E2F0E080818F7B8083E7E2FE
:101B9000F0E080818064808381E089830EC0E7E289
:101BA000F0E0808180648083E7E2F0E080818064FF
:101BB000808381E0898301C01982E7E2F0E08081BF
:101BC00080628083E6E2F0E08081806280838981A8
:101BD00027960FB6F894DEBF0FBECDBFCF91DF9131
:101BE0000895DF93CF93CDB7DEB7E6E2F0E08081D2
:101BF00080688083CF91DF910895DF93CF93CDB735
:101C0000DEB7E6E2F0E080818F778083CF91DF91CD
:101C10000895DF93CF93CDB7DEB7E6E2F0E08081A1
:101C200088608083CF91DF910895DF93CF93CDB704
:101C3000DEB7E6E2F0E08081877F8083CF91DF919D
:101C40000895DF93CF9300D000D0CDB7DEB78A835D
:101C500019828A81882309F426C18A81803208F09A
:101C600022C18A81282F30E03C832B838B819C8189
:101C70008430910509F484C02B813C8125303105E5
:101C800094F48B819C818230910509F441C02B81B1
:101C90003C81233031050CF057C08B819C81813011
:101CA0009105D1F0F9C02B813C812630310509F432
:101CB0009FC08B819C81863091050CF47DC02B8167
:101CC0003C812730310509F4AFC08B819C8188307D
:101CD000910509F4C5C0E0C0E7E2F0E080818F7EA5
:101CE0008083E7E2F0E08081877F8083E7E2F0E0B5
:101CF00080818B7F8083E7E2F0E080818D7F80832D
:101D0000E7E2F0E080818E7F808381E08983C5C037
:101D1000E7E2F0E080818F7E8083E7E2F0E080817F
:101D2000877F8083E7E2F0E080818B7F8083E7E23A
:101D3000F0E080818D7F8083E7E2F0E08081816048
:101D4000808381E08983A9C0E7E2F0E080818F7E13
:101D50008083E7E2F0E08081877F8083E7E2F0E044
:101D600080818B7F8083E7E2F0E0808182608083E6
:101D7000E7E2F0E080818E7F808381E089838DC0FF
:101D8000E7E2F0E080818F7E8083E7E2F0E080810F
:101D9000877F8083E7E2F0E080818B7F8083E7E2CA
:101DA000F0E0808182608083E7E2F0E08081816002
:101DB000808381E0898371C0E7E2F0E080818F7EDB
:101DC0008083E7E2F0E08081877F8083E7E2F0E0D4
:101DD000808184608083E7E2F0E080818D7F808372
:101DE000E7E2F0E080818E7F808381E0898355C0C7
:101DF000E7E2F0E080818F7E8083E7E2F0E080819F
:101E0000877F8083E7E2F0E0808184608083E7E27F
:101E1000F0E080818D7F8083E7E2F0E08081816067
:101E2000808381E0898339C0E7E2F0E080818F7EA2
:101E30008083E7E2F0E08081877F8083E7E2F0E063
:101E4000808184608083E7E2F0E08081826080832B
:101E5000E7E2F0E080818E7F808381E089831DC08E
:101E6000E7E2F0E080818F7E8083E7E2F0E080812E
:101E7000877F8083E7E2F0E0808184608083E7E20F
:101E8000F0E0808182608083E7E2F0E08081816021
:101E9000808381E0898301C01982E6E2F0E08081DD
:101EA0008064808301C0198289810F900F900F9008
:101EB0000F90CF91DF910895DF93CF93CDB7DEB729
:101EC000E6E2F0E0808180718823D1F3CF91DF9149
:101ED0000895DF93CF93CDB7DEB7E6E2F0E08081DF
:101EE00080618083CF91DF910895DF93CF9300D0FD
:101EF00000D0CDB7DEB79B838A836C8319828A8139
:101F00009B81009769F00E945C0F0E94690FE5E2D7
:101F1000F0E08081EA81FB81808381E0898302C0D7
:101F200082E0898389810F900F900F900F90CF915D
:101F3000DF910895DF93CF9300D000D00F92CDB7FB
:101F4000DEB78A836B8319828A81282F30E03D8334
:101F50002C838C819D8182309105E9F02C813D811B
:101F60002330310534F48C819D818130910561F0FD
:101F700027C02C813D8123303105A1F08C819D81CA
:101F800084309105B1F01CC0E9E3F0E08B818183DE
:101F900081E0898316C0E6E3F0E08B81818381E0F4
:101FA00089830FC0E3E3F0E08B81818381E0898343
:101FB00008C0E0E3F0E08B81818381E0898301C088
:101FC000198289810F900F900F900F900F90CF91F1
:101FD000DF910895DF93CF9300D000D00F92CDB75B
:101FE000DEB78A836B8319828A81282F30E03D8394
:101FF0002C838C819D8182309105E9F02C813D817B
:102000002330310534F48C819D818130910561F05C
:1020100027C02C813D8123303105A1F08C819D8129
:1020200084309105B1F01CC0E9E3F0E08B8182833C
:1020300081E0898316C0E6E3F0E08B81828381E052
:1020400089830FC0E3E3F0E08B81828381E08983A1
:1020500008C0E0E3F0E08B81828381E0898301C0E6
:10206000198289810F900F900F900F900F90CF9150
:10207000DF910895DF93CF9300D000D000D0CDB78B
:10208000DEB78A837C836B8319828A81282F30E0B4
:102090003E832D838D819E8182309105F9F02D81C3
:1020A0003E812330310534F48D819E81813091054C
:1020B00061F02FC02D813E8123303105C1F08D812B
:1020C0009E8184309105E1F024C0E9E3F0E0808155
:1020D000EB81FC81808381E089831CC0E6E3F0E032
:1020E0008081EB81FC81808381E0898313C0E3E3FD
:1020F000F0E08081EB81FC81808381E089830AC0EC
:10210000E0E3F0E08081EB81FC81808381E08983E2
:1021100001C01982898126960FB6F894DEBF0FBEE2
:10212000CDBFCF91DF910895DF93CF93CDB7DEB7C9
:102130002A970FB6F894DEBF0FBECDBF8A836B839C
:102140004C8319828B81883008F0EDC18C81882303
:1021500009F087C08A81282F30E03A87298789854E
:102160009A858230910581F129853A8523303105A0
:1021700034F489859A858130910569F070C029858C
:102180003A8523303105C9F189859A8584309105D6
:1021900009F44CC064C0A9E3B0E0E9E3F0E0818158
:1021A000482F8B81282F30E081E090E0022E02C082
:1021B000880F991F0A94E2F78095842311968C93D7
:1021C000119781E08983B0C1A6E3B0E0E6E3F0E0D7
:1021D0008181482F8B81282F30E081E090E0022E12
:1021E00002C0880F991F0A94E2F780958423119604
:1021F0008C93119781E0898397C1A3E3B0E0E3E377
:10220000F0E08181482F8B81282F30E081E090E041
:10221000022E02C0880F991F0A94E2F7809584234A
:1022200011968C93119781E089837EC1A0E3B0E081
:10223000E0E3F0E08181482F8B81282F30E081E0BE
:1022400090E0022E02C0880F991F0A94E2F7809551
:10225000842311968C93119781E0898365C119823B
:1022600063C18C81813009F083C08A81282F30E0DE
:1022700038872F838F8198858230910579F12F815E
:1022800038852330310534F48F819885813091056C
:1022900069F06CC02F81388523303105B9F18F8109
:1022A00098858430910509F449C060C0A9E3B0E085
:1022B000E9E3F0E08181482F8B81282F30E081E035
:1022C00090E0022E02C0880F991F0A94E2F7842B37
:1022D00011968C93119781E0898326C1A6E3B0E023
:1022E000E6E3F0E08181482F8B81282F30E081E008
:1022F00090E0022E02C0880F991F0A94E2F7842B07
:1023000011968C93119781E089830EC1A3E3B0E00D
:10231000E3E3F0E08181482F8B81282F30E081E0DA
:1023200090E0022E02C0880F991F0A94E2F7842BD6
:1023300011968C93119781E08983F6C0A0E3B0E0F9
:10234000E0E3F0E08181482F8B81282F30E081E0AD
:1023500090E0022E02C0880F991F0A94E2F7842BA6
:1023600011968C93119781E08983DEC01982DCC0BD
:102370008C81823009F0D5C08A81282F30E03E83DD
:102380002D838D819E818230910509F444C02D8179
:102390003E812330310534F48D819E818130910559
:1023A00071F0BDC02D813E812330310509F45FC03D
:1023B0008D819E818430910509F485C0B0C0A9E368
:1023C000B0E0E9E3F0E08181482F8B81282F30E0F5
:1023D00081E090E002C0880F991F2A95E2F780956E
:1023E000842311968C93A9E3B0E0E9E3F0E08281C5
:1023F000482F8B81282F30E081E090E0022E02C030
:10240000880F991F0A94E2F7842B12968C931297E7
:1024100081E0898389C0A6E3B0E0E6E3F0E0818152
:10242000482F8B81282F30E081E090E002C0880F98
:10243000991F2A95E2F78095842311968C93A6E341
:10244000B0E0E6E3F0E08281482F8B81282F30E076
:1024500081E090E0022E02C0880F991F0A94E2F7F3
:10246000842B12968C93129781E089835DC0A3E33D
:10247000B0E0E3E3F0E08181482F8B81282F30E04A
:1024800081E090E002C0880F991F2A95E2F78095BD
:10249000842311968C93A3E3B0E0E3E3F0E0828120
:1024A000482F8B81282F30E081E090E0022E02C07F
:1024B000880F991F0A94E2F7842B12968C93129737
:1024C00081E0898331C0A0E3B0E0E0E3F0E0818106
:1024D000482F8B81282F30E081E090E002C0880FE8
:1024E000991F2A95E2F78095842311968C93A0E397
:1024F000B0E0E0E3F0E08281482F8B81282F30E0CC
:1025000081E090E0022E02C0880F991F0A94E2F742
:10251000842B12968C93129781E0898305C01982CF
:1025200003C0198201C0198289812A960FB6F894D6
:10253000DEBF0FBECDBFCF91DF910895DF93CF9364
:10254000CDB7DEB728970FB6F894DEBF0FBECDBF6C
:102550008A836B834C8319828B81883008F012C187
:102560008C81823009F083C08A81282F30E038873F
:102570002F838F8198858230910579F12F8138855D
:102580002330310534F48F8198858130910569F0CD
:102590006CC02F81388523303105B9F18F81988542
:1025A0008430910509F449C060C0A9E3B0E0E9E3D3
:1025B000F0E08281482F8B81282F30E081E090E08D
:1025C000022E02C0880F991F0A94E2F7842B1296FC
:1025D0008C93129781E08983D6C0A6E3B0E0E6E34E
:1025E000F0E08281482F8B81282F30E081E090E05D
:1025F000022E02C0880F991F0A94E2F7842B1296CC
:102600008C93129781E08983BEC0A3E3B0E0E3E33B
:10261000F0E08281482F8B81282F30E081E090E02C
:10262000022E02C0880F991F0A94E2F7842B12969B
:102630008C93129781E08983A6C0A0E3B0E0E0E329
:10264000F0E08281482F8B81282F30E081E090E0FC
:10265000022E02C0880F991F0A94E2F7842B12966B
:102660008C93129781E089838EC019828CC08C81F3
:10267000813009F088C08A81282F30E03E832D8385
:102680008D819E818230910581F12D813E812330A3
:10269000310534F48D819E818130910569F070C0DF
:1026A0002D813E8123303105C9F18D819E81843099
:1026B000910509F44CC064C0A9E3B0E0E9E3F0E09F
:1026C0008281482F8B81282F30E081E090E0022E1C
:1026D00002C0880F991F0A94E2F78095842312960E
:1026E0008C93129781E089834EC0A6E3B0E0E6E3C5
:1026F000F0E08281482F8B81282F30E081E090E04C
:10270000022E02C0880F991F0A94E2F78095842355
:1027100012968C93129781E0898335C0A3E3B0E0D1
:10272000E3E3F0E08281482F8B81282F30E081E0C5
:1027300090E0022E02C0880F991F0A94E2F780955C
:10274000842312968C93129781E089831CC0A0E3A6
:10275000B0E0E0E3F0E08281482F8B81282F30E069
:1027600081E090E0022E02C0880F991F0A94E2F7E0
:102770008095842312968C93129781E0898303C0FD
:10278000198201C01982898128960FB6F894DEBF9C
:102790000FBECDBFCF91DF910895DF93CF93CDB71B
:1027A000DEB727970FB6F894DEBF0FBECDBF8A8382
:1027B0006B835D834C8319828C819D81009719F412
:1027C00082E0898380C08B81883008F07BC08A8159
:1027D000282F30E03F832E834E815F8142305105A8
:1027E00069F18E819F818330910534F42E813F8180
:1027F0002130310569F064C04E815F81433051055D
:1028000099F18E819F818430910509F443C058C0AD
:10281000E9E3F0E08081282F30E08B81882F90E081
:10282000A90102C0559547958A95E2F7CA018170C2
:10283000EC81FD81808381E0898345C0E6E3F0E09F
:102840008081282F30E08B81882F90E0A90102C081
:10285000559547958A95E2F7CA018170EC81FD8113
:10286000808381E089832FC0E3E3F0E08081282F1B
:1028700030E08B81882F90E0A90102C055954795E3
:102880008A95E2F7CA018170EC81FD81808381E045
:10289000898319C0E0E3F0E08081282F30E08B814C
:1028A000882F90E0A90102C0559547958A95E2F7D7
:1028B000CA018170EC81FD81808381E0898303C03E
:1028C000198201C01982898127960FB6F894DEBF5C
:1028D0000FBECDBFCF91DF910895DF93CF9300D08E
:1028E00000D0CDB7DEB78A8319828A81282F30E0E5
:1028F0003C832B838B819C818330910509F464C0D8
:102900002B813C812430310584F48B819C81813082
:102910009105B1F12B813C81223031050CF042C090
:102920008B819C810097D1F0A9C02B813C812530FF
:10293000310509F46DC08B819C81853091050CF4C3
:1029400055C02B813C812630310509F473C08B8141
:102950009C818730910509F47FC090C0E0E5F0E0EC
:1029600080818F778083E0E5F0E080818F7B8083BA
:10297000E0E5F0E080818F7D808381E089837FC006
:10298000E0E5F0E080818F778083E0E5F0E0808112
:102990008F7B8083E0E5F0E080818062808381E04E
:1029A00089836DC0E0E5F0E080818F778083E0E58A
:1029B000F0E0808180648083E0E5F0E080818F7DBD
:1029C000808381E089835BC0E0E5F0E080818F77E0
:1029D0008083E0E5F0E0808180648083E0E5F0E0E2
:1029E00080818062808381E0898349C0E0E5F0E0F6
:1029F000808180688083E0E5F0E080818F7B808348
:102A0000E0E5F0E080818F7D808381E0898337C0BD
:102A1000E0E5F0E0808180688083E0E5F0E080819F
:102A20008F7B8083E0E5F0E080818062808381E0BD
:102A3000898325C0E0E5F0E0808180688083E0E55F
:102A4000F0E0808180648083E0E5F0E080818F7D2C
:102A5000808381E0898313C0E0E5F0E080818068B5
:102A60008083E0E5F0E0808180648083E0E5F0E051
:102A700080818062808381E0898301C0198289819D
:102A80000F900F900F900F90CF91DF910895DF93EB
:102A9000CF93CDB7DEB763970FB6F894DEBF0FBE06
:102AA000CDBF1B8A0E94F40684E060E041E00E94F2
:102AB000941084E061E041E00E94941081E060E0C5
:102AC00042E00E94941084E060E041E00E949E1287
:102AD00084E061E041E00E949E1282E061E00E9499
:102AE000D20C0E94F10D81E00E94210ECE0143968E
:102AF00061E00E94750F8B89882F90E0AA2797FDCF
:102B0000A095BA2FBC01CD010E944D04DC01CB0180
:102B1000BC01CD0120E030E04FE753E40E941103F7
:102B2000DC01CB01BC01CD0120E030E040EA50E403
:102B30000E941702DC01CB018F87988BA98BBA8B7F
:102B40006F85788989899A8920E030E040E450E4F3
:102B50000E94BD03181634F484E060E042E00E9455
:102B60009E1205C084E060E041E00E949E1280E079
:102B700090E0AAE7B4E48B879C87AD87BE876B851E
:102B80007C858D859E8520E030E04AEF54E40E94EC
:102B90001702DC01CB018F839887A987BA876F81E1
:102BA000788589859A8520E030E040E85FE30E94DF
:102BB0001D0488232CF481E090E09E838D833FC028
:102BC0006F81788589859A8520E03FEF4FE757E44C
:102BD0000E94BD0318164CF56B857C858D859E85FE
:102BE00020E030E040E251E40E941702DC01CB011A
:102BF000BC01CD010E944100DC01CB019E838D838D
:102C00000FC088EC90E09C838B838B819C81019723
:102C1000F1F79C838B838D819E8101979E838D83A9
:102C20008D819E81009769F761CF6F817885898555
:102C30009A850E944100DC01CB019E838D838D81AA
:102C40009E819A83898389819A810197F1F79A837A
:102C500089834CCF2F923F924F925F926F927F92D7
:102C60008F929F92AF92BF92CF92DF92EF92FF929C
:102C70000F931F93CF93DF93CDB7DEB7CA1BDB0B48
:102C80000FB6F894DEBF0FBECDBF09942A883988ED
:102C900048885F846E847D848C849B84AA84B984F4
:102CA000C884DF80EE80FD800C811B81AA81B98100
:102CB000CE0FD11D0FB6F894DEBF0FBECDBFED0114
:102CC0000895FB019F01E8944230C4F04532B4F40A
:102CD0004A3029F497FB1EF4909581959F4F642FFD
:102CE00077270E949216805D8A330CF0895D81936C
:102CF000CB010097A1F716F45DE251931082C90150
:102D00000C948216DC01FC01672F71917723E1F7A7
:102D1000329704C07C916D9370836291AE17BF07A8
:102D2000C8F30895AA1BBB1B51E107C0AA1FBB1F14
:102D3000A617B70710F0A61BB70B881F991F5A9547
:102D4000A9F780959095BC01CD010895F894FFCF27
:102D50000000000000000000000102020303030362
:102D6000040404040404040405050505050505051B
:102D700005050505050505050606060606060606FB
:102D800006060606060606060606060606060606E3
:102D900006060606060606060707070707070707CB
:102DA00007070707070707070707070707070707B3
:102DB00007070707070707070707070707070707A3
:102DC0000707070707070707070707070707070793
:102DD000070707070707070708080808080808087B
:102DE0000808080808080808080808080808080863
:102DF0000808080808080808080808080808080853
:102E00000808080808080808080808080808080842
:102E10000808080808080808080808080808080832
:102E20000808080808080808080808080808080822
:102E30000808080808080808080808080808080812
:102E40000808080808080808080808080808080802
:082E500008080808080808083A
:00000001FF
