:100000000C942A000C9447000C9447000C94470071
:100010000C9447000C9447000C9447000C94470044
:100020000C9447000C9447000C9447000C94470034
:100030000C9447000C9447000C9447000C94470024
:100040000C9447000C9447000C9447000C94470014
:100050000C94470011241FBECFE5D8E0DEBFCDBF12
:1000600010E0A0E6B0E0ECEFF4E302C005900D92E2
:10007000AC39B107D9F710E0ACE9B0E001C01D928E
:10008000AE39B107E1F70E9436140C947C1A0C9437
:100090000000EF92FF920F931F937B018C0120E0F1
:1000A00030E040E05FE40E94F50388238CF0C80153
:1000B000B70120E030E040E05FE40E94C1010E940F
:1000C00055049B01AC01205030404040504806C0D0
:1000D000C801B7010E9455049B01AC01B901CA01D6
:1000E0001F910F91FF90EF900895A0E0B0E0EBE733
:1000F000F0E00C94001ADC012B01FA019C91923083
:1001000008F439C1EB018881823008F433C194309E
:1001100069F4843009F02FC111969C91119789815F
:10012000981709F428C1A4E9B0E025C1843009F486
:1001300021C18230A9F4923009F01DC19A01AD01AC
:1001400088E0EA010990AE01E90109929E0181501F
:10015000C1F7E201898111969C918923818308C1AD
:10016000923009F407C112962D903C901397EB0141
:100170008A819B811496AD90BD90CD90DC901797AD
:10018000EC80FD800E811F819101281B390BB90184
:1001900037FF04C066277727621B730B6032710537
:1001A0000CF061C0121613066CF537014801062EDB
:1001B00004C096948794779467940A94D2F721E0C8
:1001C00030E040E050E004C0220F331F441F551FB1
:1001D0006A95D2F721503040404050402E213F21B7
:1001E00040235123211531054105510521F021E01E
:1001F00030E040E050E079018A01E628F72808293C
:1002000019293CC0232BD1F1260E371E350146019A
:10021000062E04C096948794779467940A94D2F734
:1002200021E030E040E050E004C0220F331F441FC3
:10023000551F6A95D2F721503040404050402A2146
:100240003B214C215D21211531054105510521F04E
:1002500021E030E040E050E059016A01A628B728CB
:10026000C828D9280BC0821593052CF01C01AA249C
:10027000BB24650103C0EE24FF24870111969C91E5
:10028000D20111968C91981709F445C0992339F041
:10029000A80197012A193B094C095D0906C0A6016E
:1002A00095012E193F09400B510B57FD08C01182D3
:1002B0003382228224833583468357831DC081E0A5
:1002C00081833382228288279927DC01821B930B4A
:1002D000A40BB50B84839583A683B7830DC0220F2F
:1002E000331F441F551F24833583468357838281E0
:1002F000938101979383828324813581468157813D
:10030000DA01C9010197A109B1098F5F9F4FAF4F72
:10031000BF4328F30BC0918333822282EA0CFB1C7B
:100320000C1D1D1DE482F5820683178383E0808304
:10033000248135814681578157FF1AC0C901AA27F8
:1003400097FDA095BA2F81709070A070B0705695EF
:10035000479537952795822B932BA42BB52B848318
:100360009583A683B7838281938101969383828349
:10037000DF0101C0D201CD01CDB7DEB7E2E10C94BF
:100380001C1AA0E2B0E0E7ECF1E00C940C1A6983CF
:100390007A838B839C832D833E834F835887E9E048
:1003A000EE2EF12CEC0EFD1ECE010196B7010E943F
:1003B0007E058E010F5E1F4FCE010596B8010E948B
:1003C0007E058A8991E089278A8BC701B801AE0131
:1003D000475E5F4F0E9475000E94A904A096E6E068
:1003E0000C94281AA0E2B0E0E8EFF1E00C940C1AAB
:1003F00069837A838B839C832D833E834F835887C5
:10040000F9E0EF2EF12CEC0EFD1ECE010196B701A6
:100410000E947E058E010F5E1F4FCE010596B8012A
:100420000E947E05C701B801AE01475E5F4F0E9482
:1004300075000E94A904A096E6E00C94281AA0E298
:10044000B0E0E5E2F2E00C94001A69837A838B83D2
:100450009C832D833E834F835887CE010196BE0136
:10046000675F7F4F0E947E05CE010596BE016F5EDD
:100470007F4F0E947E059985923088F0898982306D
:10048000C8F0943019F4823051F404C0843029F457
:10049000923081F484E990E0C6C0923049F420E0C3
:1004A0009A858A89981321E02A87CE010996BBC0D4
:1004B000823049F420E09A858A89981321E02A8BBA
:1004C000CE014196B0C02D843E844F8458886D88FB
:1004D0007E888F88988CEE24FF248701AA24BB2471
:1004E000650140E050E060E070E0E0E0F0E0C10174
:1004F00081709070892BE9F0E60CF71C081D191D1E
:100500009A01AB012A0D3B1D4C1D5D1D80E090E062
:10051000A0E0B0E0E614F7040805190520F481E036
:1005200090E0A0E0B0E0BA01A901480F591F6A1F8E
:100530007B1FAA0CBB1CCC1CDD1C97FE08C081E0F5
:1005400090E0A0E0B0E0A82AB92ACA2ADB2A3196B6
:10055000E032F10549F0660C771C881C991C569412
:10056000479437942794C3CFFA85EA892B893C892D
:100570008B859C85280F391F2E5F3F4F17C0CA01FE
:1005800081709070892B61F016950795F794E79428
:1005900080E090E0A0E0B0E8E82AF92A0A2B1B2BC3
:1005A00076956795579547952F5F3F4F77FDE7CF36
:1005B0000CC0440F551F661F771F17FD4160EE0CDE
:1005C000FF1C001F111F21503040403090E05907A0
:1005D00090E0690790E4790760F32B8F3C8FDB0193
:1005E000CA018F779070A070B07080349105A1051A
:1005F000B10561F447FD0AC0E114F10401051105DC
:1006000029F0405C5F4F6F4F7F4F40781A8EFE1786
:1006100011F081E08A8F4D8F5E8F6F8F78A383E01A
:10062000898FCE0149960E94A904A096E2E10C941C
:100630001C1AA8E1B0E0EFE1F3E00C94081A69831A
:100640007A838B839C832D833E834F835887B9E0C5
:10065000EB2EF12CEC0EFD1ECE010196B7010E948F
:100660007E058E010F5E1F4FCE010596B8010E94D8
:100670007E052985223008F47EC03989323010F495
:10068000B8017CC08A859A8989278A87243011F02D
:10069000223031F4231709F06EC064E970E06EC0B7
:1006A000343039F41D861E861F86188A1C861B86E8
:1006B00004C0323021F484E08987B7015FC02B8504
:1006C0003C858B899C89281B390B3C872B87ED84C3
:1006D000FE840F851889AD88BE88CF88D88CEA142F
:1006E000FB040C051D0540F4EE0CFF1C001F111F40
:1006F000215030403C872B8720E030E040E050E044
:1007000080E090E0A0E0B0E460E070E0EA14FB0478
:100710000C051D0540F0282B392B4A2B5B2BEA18C2
:10072000FB080C091D09B695A79597958795EE0CC2
:10073000FF1C001F111F6F5F7F4F6F31710531F775
:10074000DA01C9018F779070A070B0708034910584
:10075000A105B10561F427FD0AC0E114F10401050A
:10076000110529F0205C3F4F4F4F5F4F20782D87B8
:100770003E874F87588BBE01675F7F4FCB010E943A
:10078000A9046896EAE00C94241AA8E1B0E0EBEC26
:10079000F3E00C940C1A69837A838B839C832D83FA
:1007A0003E834F83588789E0E82EF12CEC0EFD1E26
:1007B000CE010196B7010E947E058E010F5E1F4F8C
:1007C000CE010596B8010E947E058985823040F0F1
:1007D0008989823028F0C701B8010E94F60501C05E
:1007E0008FEF6896E6E00C94281AA8E1B0E0EBEFF2
:1007F000F3E00C940C1A69837A838B839C832D839A
:100800003E834F83588789E0E82EF12CEC0EFD1EC5
:10081000CE010196B7010E947E058E010F5E1F4F2B
:10082000CE010596B8010E947E058985823040F090
:100830008989823028F0C701B8010E94F60501C0FD
:100840008FEF6896E6E00C94281AA8E1B0E0EBE29E
:10085000F4E00C940C1A69837A838B839C832D8338
:100860003E834F83588789E0E82EF12CEC0EFD1E65
:10087000CE010196B7010E947E058E010F5E1F4FCB
:10088000CE010596B8010E947E058985823040F030
:100890008989823028F0C701B8010E94F60501C09D
:1008A00081E06896E6E00C94281AACE0B0E0EBE555
:1008B000F4E00C94101A69837A838B839C83CE01B5
:1008C0000196BE016B5F7F4F0E947E058D81823055
:1008D00061F1823050F1843021F48E81882351F10E
:1008E0002EC02F81388537FD20C06E812F31310514
:1008F0001CF06623F9F023C08EE190E0821B930B7D
:1009000029853A854B855C8504C056954795379572
:1009100027958A95D2F76623B1F05095409530958A
:1009200021953F4F4F4F5F4F0EC020E030E040E039
:1009300050E009C02FEF3FEF4FEF5FE704C020E02A
:1009400030E040E050E8B901CA012C96E2E00C9496
:100950002C1ADF92EF92FF920F931F93FC01E48019
:10096000F58006811781D1808081823048F480E053
:1009700090E0A0E1B0E0E82AF92A0A2B1B2BA5C0E1
:10098000843009F49FC0823021F4EE24FF248701D3
:1009900005C0E114F1040105110519F4E0E0F0E0EF
:1009A00096C0628173819FEF623879070CF05BC05B
:1009B00022E83FEF261B370B2A3131052CF020E0CF
:1009C00030E040E050E02AC0B801A701022E04C088
:1009D00076956795579547950A94D2F781E090E010
:1009E000A0E0B0E004C0880F991FAA1FBB1F2A9582
:1009F000D2F70197A109B1098E219F21A023B1232C
:100A00000097A105B10521F081E090E0A0E0B0E001
:100A10009A01AB01282B392B4A2B5B2BDA01C90138
:100A20008F779070A070B07080349105A105B105EA
:100A300039F427FF09C0205C3F4F4F4F5F4F04C080
:100A4000215C3F4F4F4F5F4FE0E0F0E02030A0E0EF
:100A50003A07A0E04A07A0E45A0710F0E1E0F0E00E
:100A600079018A0127C06038710564F5FB01E158FE
:100A7000FF4FD801C7018F779070A070B07080349D
:100A80009105A105B10539F4E7FE0DC080E490E0C1
:100A9000A0E0B0E004C08FE390E0A0E0B0E0E80E9A
:100AA000F91E0A1F1B1F17FF05C016950795F7941F
:100AB000E794319687E016950795F794E7948A9521
:100AC000D1F705C0EE24FF248701EFEFF0E06E2F91
:100AD000679566276795902F9F77D794DD24D794E5
:100AE0008E2F8695492F462B582F5D29B701CA01B5
:100AF0001F910F91FF90EF90DF900895FC01DB01B3
:100B0000408151812281622F6F7770E0221F22275E
:100B1000221F9381892F880F822B282F30E0991F65
:100B20009927991F11969C93119721153105A9F5C5
:100B3000411551056105710511F482E037C082E865
:100B40009FEF13969C938E9312979A01AB0167E0E7
:100B5000220F331F441F551F6A95D1F783E08C93F2
:100B60000DC0220F331F441F551F12968D919C916B
:100B70001397019713969C938E931297203080E0E1
:100B8000380780E0480780E4580758F314962D93FF
:100B90003D934D935C93179708952F3F310579F45A
:100BA000411551056105710519F484E08C93089590
:100BB00064FF03C081E08C9312C01C9210C02F57B9
:100BC000304013963C932E93129783E08C9387E0EA
:100BD000440F551F661F771F8A95D1F770641496CE
:100BE0004D935D936D937C93179708951F93DC014C
:100BF000FB019C91923008F447C08081823008F458
:100C000043C0943051F411961C91843099F5818140
:100C1000682F70E0611B71093FC0843021F0923071
:100C200031F48230B9F18181882389F12DC0119688
:100C30001C9111978230F1F081811817D9F4129626
:100C40002D913C911397828193818217930794F0A1
:100C500028173907BCF014968D919D910D90BC9189
:100C6000A02D2481358146815781281739074A07ED
:100C70005B0718F4112341F00AC082179307A407F9
:100C8000B50740F4112319F061E070E005C06FEF83
:100C90007FEF02C060E070E0CB011F910895DF9309
:100CA000CF93CDB7DEB7EE970FB6F894DEBF0FBE89
:100CB000CDBF84E06FEF0E94F50C84E061E00E94FC
:100CC000450D82E061E041E00E94EF0D82E062E0CC
:100CD00041E00E94EF0D82E063E041E00E94EF0DF1
:100CE00083E30E946D0A82E30E946D0A88E30E94FA
:100CF0006D0A80E090E0A8E4B2E48BAF9CAFADAFAA
:100D0000BEAF6BAD7CAD8DAD9EAD2BEA3AEA4AE24B
:100D100050E40E941F02DC01CB018FAB98AFA9AF5A
:100D2000BAAF6FA978AD89AD9AAD20E030E040E868
:100D30005FE30E94250488231CF481E08EAB91C000
:100D40006FA978AD89AD9AAD20E030E04FE753E46C
:100D50000E94C50318160CF07BC06BAD7CAD8DAD49
:100D60009EAD20E030E04AE754E40E941903DC0124
:100D7000CB018AAB9BABACABBDAB6AA97BA98CA901
:100D80009DA920E030E04AEF54E40E941F02DC01FC
:100D9000CB018EA79FA7A8ABB9AB6EA57FA588A9ED
:100DA00099A920E030E040E85FE30E942504882311
:100DB0002CF481E090E09DA78CA73FC06EA57FA595
:100DC00088A999A920E03FEF4FE757E40E94C503A7
:100DD00018164CF56AA97BA98CA99DA920E030E0E2
:100DE00040E251E40E941F02DC01CB01BC01CD01B5
:100DF0000E944900DC01CB019DA78CA70FC088ECA5
:100E000090E09BA78AA78AA59BA50197F1F79BA7CE
:100E10008AA78CA59DA501979DA78CA78CA59DA5AC
:100E2000009769F724C06EA57FA588A999A90E949B
:100E30004900DC01CB019DA78CA78CA59DA599A796
:100E400088A788A599A50197F1F799A788A70FC04A
:100E50006FA978AD89AD9AAD0E944900DC01CB0144
:100E60008EAB8EA98FA38FA18A95F1F78FA38CE00B
:100E70000E946D0A80E090E0A8E4B2E48BA39CA3FA
:100E8000ADA3BEA36BA17CA18DA19EA12BEA3AEAE2
:100E90004AE250E40E941F02DC01CB018F8F98A32D
:100EA000A9A3BAA36F8D78A189A19AA120E030E00F
:100EB00040E85FE30E94250488231CF481E08E8FC4
:100EC00091C06F8D78A189A19AA120E030E04FE711
:100ED00053E40E94C50318160CF07BC06BA17CA1E3
:100EE0008DA19EA120E030E04AE754E40E9419035E
:100EF000DC01CB018A8F9B8FAC8FBD8F6A8D7B8D80
:100F00008C8D9D8D20E030E04AEF54E40E941F025A
:100F1000DC01CB018E8B9F8BA88FB98F6E897F8967
:100F2000888D998D20E030E040E85FE30E94250441
:100F300088232CF481E090E09D8B8C8B3FC06E89E0
:100F40007F89888D998D20E03FEF4FE757E40E941D
:100F5000C50318164CF56A8D7B8D8C8D9D8D20E018
:100F600030E040E251E40E941F02DC01CB01BC01F1
:100F7000CD010E944900DC01CB019D8B8C8B0FC001
:100F800088EC90E09B8B8A8B8A899B890197F1F78B
:100F90009B8B8A8B8C899D8901979D8B8C8B8C89EF
:100FA0009D89009769F724C06E897F89888D998D06
:100FB0000E944900DC01CB019D8B8C8B8C899D8923
:100FC000998B888B888999890197F1F7998B888B00
:100FD0000FC06F8D78A189A19AA10E944900DC0100
:100FE000CB018E8F8E8D8F878F858A95F1F78F87B6
:100FF00081E00E946D0A80E090E0A0E0B0E48B8781
:101000009C87AD87BE876B857C858D859E8520E01E
:1010100030E04AEF54E40E941F02DC01CB018F83D1
:101020009887A987BA876F81788589859A8520E016
:1010300030E040E85FE30E94250488232CF481E03F
:1010400090E09E838D833FC06F81788589859A85E6
:1010500020E03FEF4FE757E40E94C50318164CF518
:101060006B857C858D859E8520E030E040E251E4F3
:101070000E941F02DC01CB01BC01CD010E9449008E
:10108000DC01CB019E838D830FC088EC90E09C83B4
:101090008B838B819C810197F1F79C838B838D815E
:1010A0009E8101979E838D838D819E81009769F734
:1010B00014C06F81788589859A850E944900DC017A
:1010C000CB019E838D838D819E819A8389838981C3
:1010D0009A810197F1F79A83898386E00E946D0ACD
:1010E000EE960FB6F894DEBF0FBECDBFCF91DF9165
:1010F0000895DF93CF93CDB7DEB7E9970FB6F89495
:10110000DEBF0FBECDBF89AF82E061E042E00E944A
:10111000F90F82E062E041E00E94F90F80E090E088
:10112000A0E8BFE38DAB9EABAFABB8AF6DA97EA916
:101130008FA998AD20E030E04AEF54E40E941F02EE
:10114000DC01CB0189AB9AABABABBCAB69A97AA98B
:101150008BA99CA920E030E040E85FE30E942504D1
:1011600088232CF481E090E098AB8FA73FC069A959
:101170007AA98BA99CA920E03FEF4FE757E40E9492
:10118000C50318164CF56DA97EA98FA998AD20E06E
:1011900030E040E251E40E941F02DC01CB01BC01BF
:1011A000CD010E944900DC01CB0198AB8FA70FC095
:1011B00088EC90E09EA78DA78DA59EA50197F1F7DD
:1011C0009EA78DA78FA598A9019798AB8FA78FA5EC
:1011D00098A9009769F714C069A97AA98BA99CA955
:1011E0000E944900DC01CB0198AB8FA78FA598A97D
:1011F0009CA78BA78BA59CA50197F1F79CA78BA714
:1012000082E063E042E00E94F90F80E090E0A0E815
:10121000BFE38FA398A7A9A7BAA76FA178A589A5AF
:101220009AA520E030E04AEF54E40E941F02DC015E
:10123000CB018BA39CA3ADA3BEA36BA17CA18DA16D
:101240009EA120E030E040E85FE30E94250488236F
:101250002CF481E090E09AA389A33FC06BA17CA10C
:101260008DA19EA120E03FEF4FE757E40E94C50308
:1012700018164CF56FA178A589A59AA520E030E055
:1012800040E251E40E941F02DC01CB01BC01CD0110
:101290000E944900DC01CB019AA389A30FC088EC0E
:1012A00090E098A38F8F8F8D98A10197F1F798A365
:1012B0008F8F89A19AA101979AA389A389A19AA145
:1012C000009769F714C06BA17CA18DA19EA10E941B
:1012D0004900DC01CB019AA389A389A19AA19E8F21
:1012E0008D8F8D8D9E8D0197F1F79E8F8D8F84E070
:1012F00069AD0E94450D80E090E0A0E8BFE3898FD2
:101300009A8FAB8FBC8F698D7A8D8B8D9C8D20E0F1
:1013100030E04AEF54E40E941F02DC01CB018D8BC8
:101320009E8BAF8BB88F6D897E898F89988D20E0D9
:1013300030E040E85FE30E94250488232CF481E03C
:1013400090E09C8B8B8B3FC06D897E898F89988DB7
:1013500020E03FEF4FE757E40E94C50318164CF515
:10136000698D7A8D8B8D9C8D20E030E040E251E4D8
:101370000E941F02DC01CB01BC01CD010E9449008B
:10138000DC01CB019C8B8B8B0FC088EC90E09A8B9F
:10139000898B89899A890197F1F79A8B898B8B8937
:1013A0009C8901979C8B8B8B8B899C89009769F713
:1013B00014C06D897E898F89988D0E944900DC0157
:1013C000CB019C8B8B8B8B899C89988B8F878F858E
:1013D00098890197F1F7988B8F8782E063E041E06D
:1013E0000E94F90F80E090E0A0E0B0E48B879C873A
:1013F000AD87BE876B857C858D859E8520E030E03E
:101400004AEF54E40E941F02DC01CB018F839887CE
:10141000A987BA876F81788589859A8520E030E031
:1014200040E85FE30E94250488232CF481E090E0EB
:101430009E838D833FC06F81788589859A8520E062
:101440003FEF4FE757E40E94C50318164CF56B8534
:101450007C858D859E8520E030E040E251E40E944D
:101460001F02DC01CB01BC01CD010E944900DC015F
:10147000CB019E838D830FC088EC90E09C838B838F
:101480008B819C810197F1F79C838B838D819E8159
:1014900001979E838D838D819E81009769F714C08B
:1014A0006F81788589859A850E944900DC01CB018E
:1014B0009E838D838D819E819A83898389819A8180
:1014C0000197F1F79A838983E9960FB6F894DEBF06
:1014D0000FBECDBFCF91DF910895DF93CF93CDB7EE
:1014E000DEB76D970FB6F894DEBF0FBECDBF8D8F00
:1014F00082E061E041E00E94F90F82E062E041E0B9
:101500000E94F90F82E063E042E00E94F90F80E060
:1015100090E0A0E8BFE3898F9A8FAB8FBC8F698D75
:101520007A8D8B8D9C8D20E030E04AEF54E40E9450
:101530001F02DC01CB018D8B9E8BAF8BB88F6D8929
:101540007E898F89988D20E030E040E85FE30E943B
:10155000250488232CF481E090E09C8B8B8B3FC08A
:101560006D897E898F89988D20E03FEF4FE757E4A2
:101570000E94C50318164CF5698D7A8D8B8D9C8D54
:1015800020E030E040E251E40E941F02DC01CB0188
:10159000BC01CD010E944900DC01CB019C8B8B8BEF
:1015A0000FC088EC90E09A8B898B89899A89019782
:1015B000F1F79A8B898B8B899C8901979C8B8B8BFC
:1015C0008B899C89009769F714C06D897E898F8902
:1015D000988D0E944900DC01CB019C8B8B8B8B8901
:1015E0009C89988B8F878F8598890197F1F7988BC5
:1015F0008F8784E06D8D0E94450D80E090E0A0E82B
:10160000BFE38B879C87AD87BE876B857C858D8587
:101610009E8520E030E04AEF54E40E941F02DC0186
:10162000CB018F839887A987BA876F817885898551
:101630009A8520E030E040E85FE30E94250488239B
:101640002CF481E090E09E838D833FC06F8178858C
:1016500089859A8520E03FEF4FE757E40E94C50354
:1016600018164CF56B857C858D859E8520E030E0D5
:1016700040E251E40E941F02DC01CB01BC01CD011C
:101680000E944900DC01CB019E838D830FC088EC52
:1016900090E09C838B838B819C810197F1F79C83E5
:1016A0008B838D819E8101979E838D838D819E8109
:1016B000009769F714C06F81788589859A850E94A3
:1016C0004900DC01CB019E838D838D819E819A83AD
:1016D000898389819A810197F1F79A83898382E0CE
:1016E00063E041E00E94F90F6D960FB6F894DEBFFB
:1016F0000FBECDBFCF91DF910895DF93CF9300D080
:101700000F92CDB7DEB79B838A838A819B81009736
:10171000D1F019828981282F30E08A819B81FC01D8
:10172000E20FF31F80810E94790889818F5F89838E
:101730008981282F30E08A819B81FC01E20FF31F11
:101740008081882339F70F900F900F90CF91DF9110
:101750000895DF93CF9300D0CDB7DEB789836A8336
:101760008981882F90E0880F991F880F991F982FE3
:101770009295907F8A81890F80580E946D0A0F9000
:101780000F90CF91DF910895DF93CF9300D000D0D9
:101790000F92CDB7DEB79C838B836D831A828D81C8
:1017A000883030F58D81882F90E0880F991F880F41
:1017B000991F880F991F8A838A8180648A838A810E
:1017C0000E946D0A19820EC08981282F30E08B811A
:1017D0009C81FC01E20FF31F80810E9479088981BE
:1017E0008F5F89838981883078F382E00E946D0A57
:1017F0000F900F900F900F900F90CF91DF91089561
:10180000DF93CF93CDB7DEB781E00E946D0ACF9111
:10181000DF910895DF93CF93CDB7DEB766970FB60C
:10182000F894DEBF0FBECDBF8E8B8E89882F90E0DF
:101830009E012F5F3F4FB9014AE050E00E94371AE6
:10184000CE0101960E947D0B66960FB6F894DEBF1E
:101850000FBECDBFCF91DF910895DF93CF930F924D
:10186000CDB7DEB781E0898360E573EC80E090E07E
:1018700043E00E94C81189830E948D1289810F90D4
:10188000CF91DF910895DF93CF9300D000D00F92D6
:10189000CDB7DEB79C838B836D838B819C81892F31
:1018A00099278983898180658A830E94E3120E9437
:1018B0005A130E944F13883071F58A81882F90E067
:1018C000880F991F0E9475130E9466130E945A1375
:1018D0000E944F138831C9F48B810E9475130E94B6
:1018E00066130E945A130E944F138832A1F48D810F
:1018F0000E9475130E9466130E945A130E944F1390
:10190000883249F40E94F11206C00E944F138032BF
:1019100011F40E94F1120F900F900F900F900F9002
:10192000CF91DF910895DF93CF9300D000D00F9235
:10193000CDB7DEB79D838C838C819D81892F9927BC
:101940008A838A8180658B830E94E3120E945A13E6
:101950000E944F13883009F03FC08B81882F90E0A0
:10196000880F991F0E9475130E9466130E945A13D4
:101970000E944F13883181F58C810E9475130E945B
:1019800066130E945A130E944F13883229F50E9451
:10199000E3120E945A130E944F138031E9F48B81A5
:1019A000882F90E0880F991F81600E9475130E9414
:1019B00066130E945A130E944F13803469F40E94E8
:1019C00066130E945A130E944F13883529F40E940F
:1019D000831389830E94F11289810F900F900F90D9
:1019E0000F900F90CF91DF910895DF93CF9300D0A8
:1019F00000D00F92CDB7DEB78A836B8319828A81BC
:101A0000282F30E03D832C838C819D81823091058D
:101A1000E9F02C813D812330310534F48C819D81A6
:101A20008130910561F027C02C813D812330310543
:101A3000A1F08C819D8184309105B1F01CC0E9E357
:101A4000F0E08B81818381E0898316C0E6E3F0E0DA
:101A50008B81818381E089830FC0E3E3F0E08B8198
:101A6000818381E0898308C0E0E3F0E08B8181839A
:101A700081E0898301C0198289810F900F900F90B6
:101A80000F900F90CF91DF910895DF93CF9300D007
:101A900000D00F92CDB7DEB78A836B8319828A811B
:101AA000282F30E03D832C838C819D8182309105ED
:101AB000E9F02C813D812330310534F48C819D8106
:101AC0008130910561F027C02C813D8123303105A3
:101AD000A1F08C819D8184309105B1F01CC0E9E3B7
:101AE000F0E08B81828381E0898316C0E6E3F0E039
:101AF0008B81828381E089830FC0E3E3F0E08B81F7
:101B0000828381E0898308C0E0E3F0E08B818283F7
:101B100081E0898301C0198289810F900F900F9015
:101B20000F900F90CF91DF910895DF93CF9300D066
:101B300000D000D0CDB7DEB78A837C836B83198257
:101B40008A81282F30E03E832D838D819E818230D3
:101B50009105F9F02D813E812330310534F48D81DA
:101B60009E818130910561F02FC02D813E8123300F
:101B70003105C1F08D819E8184309105E1F024C052
:101B8000E9E3F0E08081EB81FC81808381E089835F
:101B90001CC0E6E3F0E08081EB81FC81808381E082
:101BA000898313C0E3E3F0E08081EB81FC818083D3
:101BB00081E089830AC0E0E3F0E08081EB81FC8171
:101BC000808381E0898301C01982898126960FB6BE
:101BD000F894DEBF0FBECDBFCF91DF910895DF93A4
:101BE000CF93CDB7DEB72A970FB6F894DEBF0FBEFE
:101BF000CDBF8A836B834C8319828B81883008F038
:101C0000EDC18C81882309F087C08A81282F30E0BC
:101C10003A87298789859A858230910581F12985BE
:101C20003A852330310534F489859A8581309105D0
:101C300069F070C029853A8523303105C9F189855D
:101C40009A858430910509F44CC064C0A9E3B0E0E2
:101C5000E9E3F0E08181482F8B81282F30E081E09B
:101C600090E0022E02C0880F991F0A94E2F7809537
:101C7000842311968C93119781E08983B0C1A6E3E8
:101C8000B0E0E6E3F0E08181482F8B81282F30E03F
:101C900081E090E0022E02C0880F991F0A94E2F7BB
:101CA0008095842311968C93119781E0898397C145
:101CB000A3E3B0E0E3E3F0E08181482F8B81282F9C
:101CC00030E081E090E0022E02C0880F991F0A9454
:101CD000E2F78095842311968C93119781E0898394
:101CE0007EC1A0E3B0E0E0E3F0E08181482F8B818A
:101CF000282F30E081E090E0022E02C0880F991F6B
:101D00000A94E2F78095842311968C93119781E0D1
:101D1000898365C1198263C18C81813009F083C0D8
:101D20008A81282F30E038872F838F8198858230F1
:101D3000910579F12F8138852330310534F48F8175
:101D400098858130910569F06CC02F8138852330EA
:101D50003105B9F18F8198858430910509F449C026
:101D600060C0A9E3B0E0E9E3F0E08181482F8B8116
:101D7000282F30E081E090E0022E02C0880F991FEA
:101D80000A94E2F7842B11968C93119781E0898352
:101D900026C1A6E3B0E0E6E3F0E08181482F8B8125
:101DA000282F30E081E090E0022E02C0880F991FBA
:101DB0000A94E2F7842B11968C93119781E0898322
:101DC0000EC1A3E3B0E0E3E3F0E08181482F8B8113
:101DD000282F30E081E090E0022E02C0880F991F8A
:101DE0000A94E2F7842B11968C93119781E08983F2
:101DF000F6C0A0E3B0E0E0E3F0E08181482F8B8102
:101E0000282F30E081E090E0022E02C0880F991F59
:101E10000A94E2F7842B11968C93119781E08983C1
:101E2000DEC01982DCC08C81823009F0D5C08A8185
:101E3000282F30E03E832D838D819E818230910555
:101E400009F444C02D813E812330310534F48D8165
:101E50009E818130910571F0BDC02D813E8123307E
:101E6000310509F45FC08D819E818430910509F4AC
:101E700085C0B0C0A9E3B0E0E9E3F0E08181482F7C
:101E80008B81282F30E081E090E002C0880F991FFD
:101E90002A95E2F78095842311968C93A9E3B0E00C
:101EA000E9E3F0E08281482F8B81282F30E081E048
:101EB00090E0022E02C0880F991F0A94E2F7842B4B
:101EC00012968C93129781E0898389C0A6E3B0E0D3
:101ED000E6E3F0E08181482F8B81282F30E081E01C
:101EE00090E002C0880F991F2A95E2F7809584231D
:101EF00011968C93A6E3B0E0E6E3F0E08281482FF0
:101F00008B81282F30E081E090E0022E02C0880F04
:101F1000991F0A94E2F7842B12968C93129781E012
:101F200089835DC0A3E3B0E0E3E3F0E08181482F63
:101F30008B81282F30E081E090E002C0880F991F4C
:101F40002A95E2F78095842311968C93A3E3B0E061
:101F5000E3E3F0E08281482F8B81282F30E081E09D
:101F600090E0022E02C0880F991F0A94E2F7842B9A
:101F700012968C93129781E0898331C0A0E3B0E080
:101F8000E0E3F0E08181482F8B81282F30E081E071
:101F900090E002C0880F991F2A95E2F7809584236C
:101FA00011968C93A0E3B0E0E0E3F0E08281482F4B
:101FB0008B81282F30E081E090E0022E02C0880F54
:101FC000991F0A94E2F7842B12968C93129781E062
:101FD000898305C0198203C0198201C019828981D1
:101FE0002A960FB6F894DEBF0FBECDBFCF91DF911A
:101FF0000895DF93CF93CDB7DEB728970FB6F89447
:10200000DEBF0FBECDBF8A836B834C8319828B8169
:10201000883008F012C18C81823009F083C08A8137
:10202000282F30E038872F838F8198858230910563
:1020300079F12F8138852330310534F48F819885EB
:102040008130910569F06CC02F81388523303105CE
:10205000B9F18F8198858430910509F449C060C039
:10206000A9E3B0E0E9E3F0E08281482F8B81282FDB
:1020700030E081E090E0022E02C0880F991F0A94A0
:10208000E2F7842B12968C93129781E08983D6C055
:10209000A6E3B0E0E6E3F0E08281482F8B81282FB1
:1020A00030E081E090E0022E02C0880F991F0A9470
:1020B000E2F7842B12968C93129781E08983BEC03D
:1020C000A3E3B0E0E3E3F0E08281482F8B81282F87
:1020D00030E081E090E0022E02C0880F991F0A9440
:1020E000E2F7842B12968C93129781E08983A6C025
:1020F000A0E3B0E0E0E3F0E08281482F8B81282F5D
:1021000030E081E090E0022E02C0880F991F0A940F
:10211000E2F7842B12968C93129781E089838EC00C
:1021200019828CC08C81813009F088C08A81282F67
:1021300030E03E832D838D819E818230910581F137
:102140002D813E812330310534F48D819E81813093
:10215000910569F070C02D813E8123303105C9F1B0
:102160008D819E818430910509F44CC064C0A9E33F
:10217000B0E0E9E3F0E08281482F8B81282F30E046
:1021800081E090E0022E02C0880F991F0A94E2F7C6
:102190008095842312968C93129781E089834EC098
:1021A000A6E3B0E0E6E3F0E08281482F8B81282FA0
:1021B00030E081E090E0022E02C0880F991F0A945F
:1021C000E2F78095842312968C93129781E089839D
:1021D00035C0A3E3B0E0E3E3F0E08281482F8B81D8
:1021E000282F30E081E090E0022E02C0880F991F76
:1021F0000A94E2F78095842312968C93129781E0DB
:1022000089831CC0A0E3B0E0E0E3F0E08281482FC6
:102210008B81282F30E081E090E0022E02C0880FF1
:10222000991F0A94E2F78095842312968C93129753
:1022300081E0898303C0198201C0198289812896AF
:102240000FB6F894DEBF0FBECDBFCF91DF910895DA
:10225000DF93CF93CDB7DEB727970FB6F894DEBFE5
:102260000FBECDBF8A836B835D834C8319828C81C3
:102270009D81009719F482E0898380C08B8188302A
:1022800008F07BC08A81282F30E03F832E834E8167
:102290005F814230510569F18E819F8183309105C4
:1022A00034F42E813F812130310569F064C04E81C4
:1022B0005F814330510599F18E819F818430910572
:1022C00009F443C058C0E9E3F0E08081282F30E0F2
:1022D0008B81882F90E0A90102C0559547958A957A
:1022E000E2F7CA018170EC81FD81808381E08983FE
:1022F00045C0E6E3F0E08081282F30E08B81882F15
:1023000090E0A90102C0559547958A95E2F7CA0168
:102310008170EC81FD81808381E089832FC0E3E3BC
:10232000F0E08081282F30E08B81882F90E0A90198
:1023300002C0559547958A95E2F7CA018170EC81F4
:10234000FD81808381E0898319C0E0E3F0E0808132
:10235000282F30E08B81882F90E0A90102C055958D
:1023600047958A95E2F7CA018170EC81FD818083EF
:1023700081E0898303C0198201C01982898127966F
:102380000FB6F894DEBF0FBECDBFCF91DF91089599
:102390000F931F93DF93CF93CDB7DEB728970FB678
:1023A000F894DEBF0FBECDBF6A837B838C839D8391
:1023B0004E8381E089838E81282F30E038872F83F8
:1023C0008F8198858130910591F1EF81F885E23018
:1023D000F10534F42F8138852115310571F081C064
:1023E0008F8198858230910509F43FC0EF81F8858F
:1023F000E330F10509F457C074C000E210E080E05A
:1024000092E1AAE7B0E02A813B814C815D81BC0169
:10241000CD010E94DE19DA01C9014097A109B10975
:10242000B695A79597958795F80180835BC000E2E4
:1024300010E080E092E1AAE7B0E02A813B814C8184
:102440005D81BC01CD010E94DE19DA01C90140970E
:10245000A109B109689412F8B695A7959795879543
:102460001694D1F7F80180833DC000E210E080E0CF
:1024700092E1AAE7B0E02A813B814C815D81BC01F9
:10248000CD010E94DE19DA01C9014097A109B10905
:10249000689414F8B695A795979587951694D1F7F3
:1024A000F80180831FC000E210E080E092E1AAE71B
:1024B000B0E02A813B814C815D81BC01CD010E944D
:1024C000DE19DA01C9014097A109B109689416F82B
:1024D000B695A795979587951694D1F7F8018083BF
:1024E00001C019828E81843058F4A1E2B0E0E1E2AB
:1024F000F0E08081982F9C7F8E81892B8C9301C086
:102500001982898128960FB6F894DEBF0FBECDBF21
:10251000CF91DF911F910F910895DF93CF93CDB7A6
:10252000DEB7A6E5B0E0E6E5F0E0808184608C935C
:10253000CF91DF910895DF93CF93CDB7DEB7A6E5B6
:10254000B0E0E6E5F0E080818B7F8C93CF91DF9166
:102550000895DF93CF93CDB7DEB7A6E5B0E0E6E50B
:10256000F0E0808181608C93CF91DF910895DF93BB
:10257000CF93CDB7DEB7A6E5B0E0E6E5F0E0808129
:102580008E7F8C93CF91DF910895DF93CF9300D00E
:102590000F92CDB7DEB79B838A8381E089838A81DE
:1025A0009B81009739F08A819B8190939D00809355
:1025B0009C0002C082E0898389810F900F900F9068
:1025C000CF91DF910895DF93CF93CDB7DEB7A6E526
:1025D000B0E0E6E5F0E08081806A8C93CF91DF91F6
:1025E0000895DF93CF93CDB7DEB7A6E5B0E0E6E57B
:1025F000F0E0808180698C93CF91DF910895DF9323
:10260000CF93CDB7DEB7A6E5B0E0E6E5F0E0808198
:1026100080648C93CF91DF910895DF93CF93CDB7F2
:10262000DEB7A6E5B0E0E6E5F0E080818F7B8C9335
:10263000CF91DF910895DF93CF930F92CDB7DEB79F
:102640008983A2E2B0E0E2E2F0E08081282F2170ED
:102650008981882F90E0880F991F822B8C930F908F
:10266000CF91DF910895DF93CF93CDB7DEB7A2E28C
:10267000B0E0E2E2F0E0808181608C93CF91DF9165
:102680000895DF93CF93CDB7DEB7A2E2B0E0E2E2E8
:10269000F0E080818E7F8C93CF91DF910895DF935E
:1026A000CF93CDB7DEB7E1E2F0E08081887FCF91B4
:1026B000DF910895DF93CF93CDB7DEB7E6E5F0E085
:1026C00080818823DCF7CF91DF910895DF93CF934A
:1026D000CDB7DEB7A6E5B0E0E6E5F0E080818F7427
:1026E00080688C93CF91DF910895DF93CF930F9201
:1026F000CDB7DEB78983E3E2F0E0898180830F9074
:10270000CF91DF910895DF93CF93CDB7DEB7E3E2AA
:10271000F0E08081CF91DF910895DF93CF9300D0D7
:10272000CDB7DEB789836A830E94E3120E945A13F1
:102730000E944F13883019F58981882F90E0880F07
:10274000991F0E9475130E9466130E945A130E94DB
:102750004F13883171F48A810E9475130E946613A9
:102760000E945A130E944F13883249F40E94F112BA
:1027700006C00E944F13803211F40E94F1120F9094
:102780000F90CF91DF910895DF93CF9300D000D0C9
:102790000F92CDB7DEB78B837D836C830E94E312EB
:1027A0000E945A130E944F138830B1F58B81882FF5
:1027B00090E0880F991F0E9475130E9466130E9473
:1027C0005A130E944F13883109F51A8219822C81FD
:1027D0003D8189819A81F901E80FF91F80810E946A
:1027E00075130E9466130E945A130E944F13883279
:1027F00051F42C813D8189819A81F901E80FF91FFB
:102800008081882321F70E94F11206C00E944F1395
:10281000803211F40E94F1120F900F900F900F90E0
:102820000F90CF91DF910895DF93CF930F92CDB7A3
:10283000DEB719820E945A130E944F13803689F422
:102840000E9466130E945A130E944F13803849F465
:102850000E94831389830E944F13803A11F40E94CF
:10286000661389810F90CF91DF9108950F931F9385
:10287000DF93CF93CDB7DEB7C258D0400FB6F894F0
:10288000DEBF0FBECDBF81E060E042E00E94EF0DF1
:1028900081E061E042E00E94EF0D81E062E042E011
:1028A0000E94EF0D83E060E042E00E94EF0D83E0C4
:1028B00061E042E00E94EF0D0E942D0C0E944F0645
:1028C00080E690E00E947D0BFE01E558FF4F80E01E
:1028D00090E0AAE7B4E480839183A283B3838E015E
:1028E00009581F4FFE01E558FF4F608171818281B9
:1028F000938120E030E04AEF54E40E941F02DC01A3
:10290000CB01F80180839183A283B383FE01E95850
:10291000FF4F608171818281938120E030E040E847
:102920005FE30E942504882344F4FE01EB58FF4F27
:1029300081E090E09183808364C0FE01E958FF4FFD
:10294000608171818281938120E03FEF4FE757E4FE
:102950000E94C50318160CF043C0FE01E558FF4F56
:10296000608171818281938120E030E040E251E416
:102970000E941F02DC01CB018E010B581F4FBC01CE
:10298000CD010E944900DC01CB01F80191838083D5
:102990001FC0FE01ED58FF4F88EC90E091838083CB
:1029A000FE01ED58FF4F808191810197F1F7FE0103
:1029B000ED58FF4F91838083DE01AB58BF4FFE017E
:1029C000EB58FF4F80819181019711969C938E93D4
:1029D000FE01EB58FF4F808191810097D1F627C00F
:1029E0008E010B581F4FFE01E958FF4F6081718126
:1029F000828193810E944900DC01CB01F80191831F
:102A00008083DE01AF58BF4FFE01EB58FF4F80813E
:102A100091818D939C93FE01EF58FF4F80819181AE
:102A20000197F1F7FE01EF58FF4F9183808381E01A
:102A30000E946D0AFE01E359FF4F80E090E0A0E0A4
:102A4000B0E480839183A283B3838E0107591F4F23
:102A5000FE01E359FF4F608171818281938120E003
:102A600030E04AEF54E40E941F02DC01CB01F80180
:102A700080839183A283B383FE01E759FF4F608176
:102A800071818281938120E030E040E85FE30E9421
:102A90002504882344F4FE01E959FF4F81E090E0CA
:102AA0009183808364C0FE01E759FF4F608171818B
:102AB0008281938120E03FEF4FE757E40E94C503F6
:102AC00018160CF043C0FE01E359FF4F608171817D
:102AD0008281938120E030E040E251E40E941F02B5
:102AE000DC01CB018E0109591F4FBC01CD010E94B1
:102AF0004900DC01CB01F801918380831FC0FE01F6
:102B0000EB59FF4F88EC90E091838083FE01EB59F5
:102B1000FF4F808191810197F1F7FE01EB59FF4F43
:102B200091838083DE01A959BF4FFE01E959FF4F10
:102B300080819181019711969C938E93FE01E959B2
:102B4000FF4F808191810097D1F627C08E010959EE
:102B50001F4FFE01E759FF4F608171818281938190
:102B60000E944900DC01CB01F80191838083DE01E2
:102B7000AD59BF4FFE01E959FF4F808191818D937F
:102B80009C93FE01ED59FF4F808191810197F1F7F0
:102B9000FE01ED59FF4F918380839E0120583F4FE6
:102BA00081E060E0A9010E9428119E012F573F4F4C
:102BB00081E061E0A9010E9428119E012E573F4F3C
:102BC00081E062E0A9010E942811FE01E058FF4F58
:102BD0008081882309F074C180E090E06DE40E9458
:102BE000430C88E690E00E947D0BFE01E15AFF4F06
:102BF00080E090E0AAE7B4E480839183A283B3836A
:102C00008E01055A1F4FFE01E15AFF4F608171810D
:102C10008281938120E030E04AEF54E40E941F0259
:102C2000DC01CB01F80180839183A283B383FE0191
:102C3000E55AFF4F608171818281938120E030E00D
:102C400040E85FE30E942504882344F4FE01E75A2C
:102C5000FF4F81E090E09183808364C0FE01E55ADC
:102C6000FF4F608171818281938120E03FEF4FE7C8
:102C700057E40E94C50318160CF043C0FE01E15A48
:102C8000FF4F608171818281938120E030E040E2DA
:102C900051E40E941F02DC01CB018E01075A1F4F35
:102CA000BC01CD010E944900DC01CB01F8019183F8
:102CB00080831FC0FE01E95AFF4F88EC90E09183AA
:102CC0008083FE01E95AFF4F808191810197F1F7DE
:102CD000FE01E95AFF4F91838083DE01A75ABF4F5F
:102CE000FE01E75AFF4F80819181019711969C93D5
:102CF0008E93FE01E75AFF4F808191810097D1F6B4
:102D000027C08E01075A1F4FFE01E55AFF4F608111
:102D10007181828193810E944900DC01CB01F8011D
:102D200091838083DE01AB5ABF4FFE01E75AFF4F0C
:102D3000808191818D939C93FE01EB5AFF4F80819E
:102D400091810197F1F7FE01EB5AFF4F9183808348
:102D500081E00E946D0AFE01EF5AFF4F80E090E093
:102D6000A0E0B0E480839183A283B3838E01035BF0
:102D70001F4FFE01EF5AFF4F608171818281938165
:102D800020E030E04AEF54E40E941F02DC01CB0156
:102D9000F80180839183A283B383FE01E35BFF4F3D
:102DA000608171818281938120E030E040E85FE3BF
:102DB0000E942504882344F4FE01E55BFF4F81E077
:102DC00090E09183808364C0FE01E35BFF4F6081EC
:102DD00071818281938120E03FEF4FE757E40E94A9
:102DE000C50318160CF043C0FE01EF5AFF4F608177
:102DF00071818281938120E030E040E251E40E94C1
:102E00001F02DC01CB018E01055B1F4FBC01CD0110
:102E10000E944900DC01CB01F801918380831FC02F
:102E2000FE01E75BFF4F88EC90E091838083FE0119
:102E3000E75BFF4F808191810197F1F7FE01E75B2E
:102E4000FF4F91838083DE01A55BBF4FFE01E55BF1
:102E5000FF4F80819181019711969C938E93FE0183
:102E6000E55BFF4F808191810097D1F634C28E01DE
:102E7000055B1F4FFE01E35BFF4F60817181828123
:102E800093810E944900DC01CB01F801918380838A
:102E9000DE01A95BBF4FFE01E55BFF4F80819181A1
:102EA00011969C938E93FE01E95BFF4F8081918187
:102EB0000197F1F7FE01E95BFF4F918380830BC21D
:102EC000FE01EF57FF4F8081882309F004C180E0A5
:102ED00090E065E40E94430C88E790E00E947D0B3F
:102EE000FE01ED5BFF4F80E090E0AAE7B4E4808351
:102EF0009183A283B3838E01015C1F4FFE01ED5BC2
:102F0000FF4F608171818281938120E030E04AEF40
:102F100054E40E941F02DC01CB01F80180839183FD
:102F2000A283B383FE01FF966081718182819381C8
:102F300020E030E040E85FE30E94250488232CF481
:102F400081E090E09EAF8DAF46C0FE01FF966081AC
:102F500071818281938120E03FEF4FE757E40E9427
:102F6000C503181664F5FE01ED5BFF4F60817181AA
:102F70008281938120E030E040E251E40E941F0210
:102F8000DC01CB01BC01CD010E944900DC01CB0179
:102F90009EAF8DAF0FC088EC90E09CAF8BAF8BAD38
:102FA0009CAD0197F1F79CAF8BAF8DAD9EAD0197B6
:102FB0009EAF8DAF8DAD9EAD009769F716C0FE0137
:102FC000FF9660817181828193810E944900DC01BA
:102FD000CB019EAF8DAF8DAD9EAD9AAF89AF89AD60
:102FE0009AAD0197F1F79AAF89AF81E00E946D0A1F
:102FF00080E090E0A0E0B0E48DAB9EABAFABB8AFAB
:103000006DA97EA98FA998AD20E030E04AEF54E485
:103010000E941F02DC01CB0189AB9AABABABBCAB0E
:1030200069A97AA98BA99CA920E030E040E85FE378
:103030000E94250488232CF481E090E098AB8FA7B0
:103040003FC069A97AA98BA99CA920E03FEF4FE76F
:1030500057E40E94C50318164CF56DA97EA98FA9E7
:1030600098AD20E030E040E251E40E941F02DC0114
:10307000CB01BC01CD010E944900DC01CB0198AB22
:103080008FA70FC088EC90E09EA78DA78DA59EA569
:103090000197F1F79EA78DA78FA598A9019798ABE7
:1030A0008FA78FA598A9009769F715C169A97AA973
:1030B0008BA99CA90E944900DC01CB0198AB8FA78A
:1030C0008FA598A99CA78BA78BA59CA50197F1F725
:1030D0009CA78BA700C1FE01EE57FF4F808188237C
:1030E00009F0F9C080E090E00E94930CFE01E158E5
:1030F000FF4F808388E890E00E947D0BFE01E1583D
:10310000FF4F80810E94790880E090E0AAE7B4E454
:103110008FA398A7A9A7BAA76FA178A589A59AA5F3
:1031200020E030E04AEF54E40E941F02DC01CB01B2
:103130008BA39CA3ADA3BEA36BA17CA18DA19EA1DB
:1031400020E030E040E85FE30E94250488232CF46F
:1031500081E090E09AA389A33FC06BA17CA18DA1DF
:103160009EA120E03FEF4FE757E40E94C5031816E9
:103170004CF56FA178A589A59AA520E030E040E242
:1031800051E40E941F02DC01CB01BC01CD010E9471
:103190004900DC01CB019AA389A30FC088EC90E021
:1031A00098A38F8F8F8D98A10197F1F798A38F8F98
:1031B00089A19AA101979AA389A389A19AA10097AD
:1031C00069F714C06BA17CA18DA19EA10E9449004A
:1031D000DC01CB019AA389A389A19AA19E8F8D8F2F
:1031E0008D8D9E8D0197F1F79E8F8D8F81E00E94CE
:1031F0006D0A80E090E0A0E0B0E4898F9A8FAB8FF9
:10320000BC8F698D7A8D8B8D9C8D20E030E04AEFEC
:1032100054E40E941F02DC01CB018D8B9E8BAF8B8F
:10322000B88F6D897E898F89988D20E030E040E8E5
:103230005FE30E94250488232CF481E090E09C8BBE
:103240008B8B3FC06D897E898F89988D20E03FEF01
:103250004FE757E40E94C50318164CF5698D7A8D27
:103260008B8D9C8D20E030E040E251E40E941F02F3
:10327000DC01CB01BC01CD010E944900DC01CB0186
:103280009C8B8B8B0FC088EC90E09A8B898B898903
:103290009A890197F1F79A8B898B8B899C89019781
:1032A0009C8B8B8B8B899C89009769F714C06D89E7
:1032B0007E898F89988D0E944900DC01CB019C8B0F
:1032C0008B8B8B899C89988B8F878F8598890197A9
:1032D000F1F7988B8F8780E090E0AAE7B3E48B87C3
:1032E0009C87AD87BE876B857C858D859E8520E01C
:1032F00030E04AEF54E40E941F02DC01CB018F83CF
:103300009887A987BA876F81788589859A8520E013
:1033100030E040E85FE30E94250488232CF481E03C
:1033200090E09E838D833FC06F81788589859A85E3
:1033300020E03FEF4FE757E40E94C50318164CF515
:103340006B857C858D859E8520E030E040E251E4F0
:103350000E941F02DC01CB01BC01CD010E9449008B
:10336000DC01CB019E838D830FC088EC90E09C83B1
:103370008B838B819C810197F1F79C838B838D815B
:103380009E8101979E838D838D819E81009769F731
:1033900004CC6F81788589859A850E944900DC017B
:1033A000CB019E838D838D819E819A8389838981C0
:1033B0009A810197F1F79A838983EFCBA1E21A2EC4
:1033C000AA1BBB1BFD010DC0AA1FBB1FEE1FFF1FC9
:1033D000A217B307E407F50720F0A21BB30BE40B19
:1033E000F50B661F771F881F991F1A9469F7609560
:1033F0007095809590959B01AC01BD01CF0108951A
:103400002F923F924F925F926F927F928F929F92F4
:10341000AF92BF92CF92DF92EF92FF920F931F93E2
:10342000CF93DF93CDB7DEB7CA1BDB0B0FB6F89493
:10343000DEBF0FBECDBF09942A88398848885F84D3
:103440006E847D848C849B84AA84B984C884DF8044
:10345000EE80FD800C811B81AA81B981CE0FD11D28
:103460000FB6F894DEBF0FBECDBFED010895FB018E
:103470009F01E8944230C4F04532B4F44A3029F454
:1034800097FB1EF4909581959F4F642F77270E949C
:10349000681A805D8A330CF0895D8193CB010097B7
:1034A000A1F716F45DE251931082C9010C94581AE9
:1034B000DC01FC01672F71917723E1F7329704C09B
:1034C0007C916D9370836291AE17BF07C8F3089526
:1034D000AA1BBB1B51E107C0AA1FBB1FA617B7073A
:1034E00010F0A61BB70B881F991F5A95A9F7809556
:0C34F0009095BC01CD010895F894FFCF29
:1034FC0057656C636F6D6500446174612077726908
:10350C007474656E3A204D00446174612077726961
:10351C007474656E3A204500526561642044617490
:0C352C00613A20000000000000000000D8
:00000001FF
